:0400000093EF26F064
:1000080000C016F001C015F0E1CF19F0E2CF1AF0E8
:10001800E9CF17F0EACF18F0F2A009D081AC02D0EE
:100028000001918781AE02D0514A522AF290F2A47F
:1000380008D00001F294D80ED76EF00ED66E634B3E
:10004800642B9EAA10D000019181650E0101406FBA
:10005800000E416F600E426F000E436F0B0E446F2F
:1000680033EC20F09E9A16C000F015C001F017C0BE
:10007800E9FF18C0EAFF19C0E1FF1AC0E2FF11004A
:080088000AAE029E000E1200F8
:100090000B820BAE52EF00F0036802680168006843
:0800A0000A360232FF0E1200C5
:0E00A800026A016A006A086A036A000E12000A
:1000B6000B840BAE66EF00F0010E036E026A016A56
:0A00C600006A0A360232FF0E120033
:1000D0000CB0AAEF00F00CA250EF01F00E6A000E77
:1000E0000264C1EF00F0F00E0214D8A48CEF00F00F
:1000F000023A01380F0B02260138F00B016E00386E
:100100000F0B01260038F00B006E08380F0B00268D
:100110000838F00B086E0E84D89002BEA5EF00F0F0
:1001200008360036013602360E2A02BEA5EF00F070
:1001300008360036013602360E2A02BEA5EF00F060
:1001400008360036013602360E2A0E50036446EF9A
:1001500001F0035E0BBC08AE4BEF01F0D880800EBF
:1001600008640030000E002201220222D8A04BEFCA
:1001700001F0023201320032034A50EF01F04BEF3E
:1001800001F001C002F000C001F008C000F0086AF0
:10019000000E0E860264F8EF00F0F00E0214D8A4F0
:1001A000E0EF00F0023A01380F0B02260138F00BA5
:1001B000016E00380F0B01260038F00B006E0E8424
:1001C000D89002BEA5EF00F00036013602360E2AA6
:1001D00002BEA5EF00F00036013602360E2A02BE3E
:1001E000A5EF00F00036013602360E2AA5EF00F02A
:1001F00001C002F000C001F0006A000E0E960E88E9
:10020000026425EF01F0F00E0214D8A410EF01F003
:10021000023A01380F0B02260138F00B016E0E84F2
:10022000D89002BEA5EF00F0013602360E2A02BEBB
:10023000A5EF00F0013602360E2A02BEA5EF00F04F
:10024000013602360E2AA5EF00F001C002F0016A65
:10025000000E0E86026455EF01F0F00E0214D8A4D1
:1002600034EF01F0023A0E84D89002BEA5EF00F000
:1002700002360E2A02BEA5EF00F002360E2A02BE9A
:10028000A5EF00F002360E2AA5EF00F0010E0C6E6D
:1002900012DF58EF01F0020E0C6EF6DE58EF01F09F
:1002A000040E0C6EF5DE58EF01F0080E0C6EFCDE4D
:0202B00012003A
:1002B200025006180E6E086A096A0B6A0350076438
:1002C2004CEF02F006500A6E068E028E03500B6E41
:1002D2000750036E000E0B649CEF01F00B50075E9B
:1002E200D8B43DEF02F0070E07640BEF02F0075E91
:1002F20000C008F001C000F002C001F0026A074E1F
:100302003DEF02F00764E0EF01F0075E00C008F085
:1003120001C000F0016A074E3DEF02F00764BEEF34
:1003220001F0075E00C008F0006A074E3DEF02F0E0
:100332000764A5EF01F00AC002F005C001F004C095
:1003420000F0086A66EF03F0030E0764B0EF01F0F5
:10035200075E08380F0B086E074E3DEF02F0D8908B
:100362000832074E3DEF02F0D8900832074E3DEFBB
:1003720002F0D89008323DEF02F0030E0764CFEF8F
:1003820001F0075E08380F0B086E0038F00B0826E4
:1003920000380F0B006E074E3DEF02F0D89000328E
:1003A2000832074E3DEF02F0D89000320832074E75
:1003B2003DEF02F0D890003208323DEF02F0030E1A
:1003C2000764F7EF01F0075E08380F0B086E00387C
:1003D200F00B082600380F0B006E0138F00B0026D8
:1003E20001380F0B016E074E3DEF02F0D89001323B
:1003F20000320832074E3DEF02F0D890013200324F
:100402000832074E3DEF02F0D89001320032083236
:100412003DEF02F0030E076428EF02F0075E083892
:100422000F0B086E0038F00B082600380F0B006E19
:100432000138F00B002601380F0B016E0238F00B69
:10044200012602380F0B026E074E3DEF02F0D890E4
:100452000232013200320832074E3DEF02F0D890EC
:100462000232013200320832074E3DEF02F0D890DC
:100472000232013200320832096A000E0EAE31EF4A
:1004820003F0081E001E011E021E082A002201227D
:10049200022231EF03F00750D8A452EF02F066EFC8
:1004A20003F0096A02C00AF0028E068E0750035C4E
:1004B200076ED8B424EF03F0070E0764F2EF02F0E0
:1004C200075E0450096E0550046E0650056E066AFA
:1004D200074E24EF03F0070E0764C7EF02F0075E32
:1004E2000450096E0550046E056A074E24EF03F0AE
:1004F200070E0764A5EF02F0075E0450096E046A56
:10050200074E24EF03F0070E07648CEF02F00AC0D7
:1005120002F066EF03F0030E076497EF02F0075E46
:1005220009380F0B096E074E24EF03F0D8900932F9
:10053200074E24EF03F0D8900932074E24EF03F060
:10054200D890093224EF03F0030E0764B6EF02F0ED
:10055200075E09380F0B096E0438F00B09260438C0
:100562000F0B046E074E24EF03F0D89004320932C9
:10057200074E24EF03F0D89004320932074E24EFDD
:1005820003F0D8900432093224EF03F0030E07641B
:10059200DEEF02F0075E09380F0B096E0438F00B2C
:1005A200092604380F0B046E0538F00B04260538B3
:1005B2000F0B056E074E24EF03F0D890053204327C
:1005C2000932074E24EF03F0D89005320432093283
:1005D200074E24EF03F0D89005320432093224EF9B
:1005E20003F0030E07640FEF03F0075E09380F0BE9
:1005F200096E0438F00B092604380F0B046E053817
:10060200F00B042605380F0B056E0638F00B052695
:1006120006380F0B066E074E24EF03F0D890063211
:10062200053204320932074E24EF03F0D890063225
:10063200053204320932074E24EF03F0D890063215
:10064200053204320932086A000E0EAE31EF03F0B1
:10065200091E041E051E061E092A04220522062260
:100662000950082604500022055001220650022299
:100672000EBE48EF03F0D8A057EF03F0023201326A
:1006820000320832033E57EF03F061EF03F0D8B0B7
:100692005CEF03F0000E081E001E011E021E082A57
:1006A2000022012202220A7E5CEF03F0010E0C6E90
:1006B2000EDD68EF03F0020E0C6E09DD68EF03F049
:1006C200040E0C6EE4DC68EF03F0000E0C6E1200F8
:1006D200086A096A000E07620364EEEF03F0025033
:1006E20006180A6E075003267E0ED8A07FEF03F08D
:1006F200035ED8B0F2EF03F083EF03F0035ED8A0FD
:10070200F6EF03F0028E068E02C00EF001C00BF06F
:1007120000C00DF000500402F4CF0CF001500502AD
:10072200F4CF00F0F3CF08F00402F3500C26F4509B
:100732000822000E00220D500502F3500C26F45040
:100742000822000E002202500402F3500826F45040
:10075200002202500502016A000E0122F350002617
:10076200F45001220D500602F3500826F4500022E4
:10077200026A000E012202220B500602F3500026EA
:10078200F4500122000E02220E500602F3500126FE
:10079200F450022202BED6EF03F0083600360136CC
:1007A20002360306D8B4F6EF03F0E9EF03F0D8807F
:1007B200800E08640030000E002201220222D8A01E
:1007C200E9EF03F0023201320032034AF2EF03F0A2
:1007D2000AAE029E000EF8EF03F0010E64DCF8EFA1
:1007E20003F0020E54DCF8EF03F0040E63DC120097
:1007F2000D6A086A0050D8B4000C04180A6E0ABECA
:100802000D1E0B6A04AE02D0041E042A00AE02D0F2
:10081200001E002A005004100A6E0ABE1FD00450A7
:10082200085E003600340836045008260036060EEC
:100832000C6E00340836045000B0085E00A0082692
:1008420000360C2EF6D700A008260BB015D00DAE40
:10085200000C001E002A081E082A000C04AE09D053
:1008620000BE04D00050086E006AF1D7006A002A68
:10087200000C001E0B2AD3D7082A0450085CD8A407
:0E088200E6D7086A002A00AEE2D7FF0C12008B
:080890000B6A0B86FF0E12003B
:0608980000000000120048
:10089E00086A080E0C6E003408360450085ED8B094
:0E08AE0002D00826D89000360C2EF5D7120086
:1008BC000B800BAE6AEF04F0026A0AAEFF0E026EFA
:0C08CC00016E006E0A360232FF0E1200B0
:0A08D800210E0D6E0D2EFED712004A
:1008E2000134083609360450085E0550D8A0053C8C
:1008F200095E003601360F0E0C6E013408360936D9
:10090200045000A006D0085E0550D8A0053C095E40
:1009120005D008260550D8B0053C09260036013618
:100922000C2EEBD700B006D0045008260550D8B0E4
:08093200053C0926000012003B
:10093A000F0E0C6E470E0D6E0D2EFED70C2EFCD729
:06094A0000000000120095
:100950000B6A0A6A096A086A0E6A03340836045088
:10096000085E0550D8A0053C095E0650D8A0063C9C
:100970000A5E0750D8A0073C0B5EE86AD8A0010EBB
:100980000E5E0336070E0C6E0334083609360A363F
:100990000B360E36045003A012D0085E0550D8A0C6
:1009A000053C095E0650D8A0063C0A5E0750D8A058
:1009B000073C0B5EE86AD8A0010E0E5E11D0082637
:1009C0000550D8B0053C09260650D8B0063C0A268A
:1009D0000750D8B0073C0B26E86AD8B0010E0E26A7
:1009E00003360C2ED1D70234083609360A360B36B8
:1009F0000E36045003A012D0085E0550D8A0053C66
:100A0000095E0650D8A0063C0A5E0750D8A0073CF5
:100A10000B5EE86AD8A0010E0E5E11D008260550C4
:100A2000D8B0053C09260650D8B0063C0A26075027
:100A3000D8B0073C0B26E86AD8B0010E0E26023665
:100A4000070E0C6E0234083609360A360B360E369F
:100A5000045002A012D0085E0550D8A0053C095EE3
:100A60000650D8A0063C0A5E0750D8A0073C0B5E93
:100A7000E86AD8A0010E0E5E11D008260550D8B045
:100A8000053C09260650D8B0063C0A260750D8B0C7
:100A9000073C0B26E86AD8B0010E0E2602360C2E53
:100AA000D1D70134083609360A360B360E360450D3
:100AB00002A012D0085E0550D8A0053C095E065081
:100AC000D8A0063C0A5E0750D8A0073C0B5EE86A37
:100AD000D8A0010E0E5E11D008260550D8B0053CF6
:100AE00009260650D8B0063C0A260750D8B0073C65
:100AF0000B26E86AD8B0010E0E260136070E0C6EE2
:100B00000134083609360A360B360E36045001A079
:100B100012D0085E0550D8A0053C095E0650D8A04A
:100B2000063C0A5E0750D8A0073C0B5EE86AD8A0D6
:100B3000010E0E5E11D008260550D8B0053C0926DE
:100B40000650D8B0063C0A260750D8B0073C0B2602
:100B5000E86AD8B0010E0E2601360C2ED1D700342B
:100B6000083609360A360B360E36045001A012D06C
:100B7000085E0550D8A0053C095E0650D8A0063C8A
:100B80000A5E0750D8A0073C0B5EE86AD8A0010EA9
:100B90000E5E11D008260550D8B0053C0926065037
:100BA000D8B0063C0A260750D8B0073C0B26E86AA6
:100BB000D8B0010E0E260036070E0C6E0034083633
:100BC00009360A360B360E36045000A012D0085EE5
:100BD0000550D8A0053C095E0650D8A0063C0A5E28
:100BE0000750D8A0073C0B5EE86AD8A0010E0E5E45
:100BF00011D008260550D8B0053C09260650D8B0BB
:100C0000063C0A260750D8B0073C0B26E86AD8B045
:100C1000010E0E2600360C2ED1D700B00ED0045097
:100C200008260550D8B0053C09260650D8B0063C29
:0C0C30000A260750D8B0073C0B26120023
:100C3C000B6A0A6A096A00500402F4CF09F0F3CF78
:100C4C0008F001500502F4CF0BF0F3CF0AF000507E
:100C5C000502F3500926F4500A22E86A0B220150CF
:100C6C000402F3500926F4500A22E86A0B2208C049
:100C7C0000F009C001F00AC002F00BC003F0120032
:100C8C0003500718D8A45AEF06F002500618D8A43F
:100C9C005AEF06F001500518D8A45AEF06F0005090
:0E0CAC000418D8B4D8841200D8941200120094
:100CBA000A6A0350D8A40A800750D8A40A820A50A4
:100CCA00D8B4C0EF06F0030AD8B479EF06F00AB038
:100CDA0074EF06F006AEBEEF06F0BCEF06F002AE09
:100CEA00BCEF06F0BEEF06F00250800B0A6E029EC1
:100CFA000650800B069E0A18D8B48AEF06F00A50EE
:100D0A00D8B4BCEF06F0BEEF06F00750035CD8B4C7
:100D1A0094EF06F0D8A0B0EF06F0B6EF06F0065052
:100D2A00025CD8B49EEF06F0D8A0B0EF06F0B6EF9A
:100D3A0006F00550015CD8B4A8EF06F0D8A0B0EFD1
:100D4A0006F0B6EF06F00450005CD8B4C0EF06F027
:100D5A00D8B0B6EF06F00A52D8B4BEEF06F0BCEF30
:100D6A0006F00A52D8B4BCEF06F0BEEF06F0D880FF
:0E0D7A001200D8901200D880D8841200120007
:100D880001013BBF02D0819601D081863BBD02D0D4
:100D9800819401D081843BBB02D0819201D08182B1
:100DA8003BB902D0819001D08180000191BB02D073
:100DB800818801D08198818A6BDD819A01013BB7D6
:100DC80002D0819601D081863BB502D0819401D0B2
:100DD80081843BB302D0819201D081823BB102D0A1
:100DE800819001D08180000191BB02D0818801D01F
:100DF8008198818A4DDD819A91AB02D09ADD01D02C
:040E080067DD120090
:100E0C0001013B51390806E3300E3B5D03E3010E53
:080E1C00006E01D0006A120013
:100E24000B6A0C6A0A6A086A0350D8B49AEF07F08E
:100E3400028E9E0E035E03BE25EF07F0D8B425EFA5
:100E440007F08AEF07F0036C080E035CD8A057EF95
:100E540007F0036E083600C008F001C000F002C0BD
:100E640001F0026A080E035CD8A057EF07F0036E86
:100E7400083600C008F001C000F0016A080E035CE7
:100E8400D8A057EF07F0036E083600C008F0006AD8
:100E9400080E035CD8A057EF07F0036E0836086A03
:100EA4000350D8A4D89063EF07F00350D8B463EF8D
:100EB40007F0D8900232013200320832032E5BEF81
:100EC40007F00BBC08A074EF07F0D8A074EF07F08C
:100ED400082AD8B4002AD8B4012AD8B4022A02BEF7
:100EE4009EEF07F00AAE9AEF07F0021E011E001EE5
:100EF400081E082AD8B4002AD8B4012AD8B4022A71
:100F04009AEF07F0026A016A006A086A9AEF07F02A
:100F14000B800BAEA3EF07F0026A0AAEA3EF07F053
:100F2400026E016E006E086E0A360232A3EF07F0FD
:100F3400000E0C6AA4EF07F0010E0C6EBDDCA4EFEA
:100F440007F0FF0E0250036E0150026E0050016E56
:060F54000850006E1200BF
:100F5A000050086E0150006E0250016E0350026E7E
:100F6A00036A0B6A0C6A9E0E036E0A6A020E0C6E04
:060F7A0068EC00F012001B
:100F80000450000A12E10550000A0FE10650000A61
:100F90000CE10750000A09E1FF0E006EFF0E016E22
:100FA0007F0E026EFF0E036EA8D0086A096A075012
:100FB000D8B46BEF08F00350D8B470EF08F00250CB
:100FC00006180A6E028E068E0E6A02C008F001C074
:100FD0000CF000C00DF004500D5E0550D8A0053C8B
:100FE0000C5E0650D8A0063C085E086A0C6A0D6AC2
:100FF000D8A002EF08F0D890023201320032083255
:10100000010E0E6E0750035ED8A00FEF08F07E0EA3
:101010000E240326D8B075EF08F015EF08F07E0E09
:101020000E240326D8A07AEF08F0180E0B6E0D36AA
:101030000C3608360036013602360E360450005E95
:101040000550D8A0053C015E0650D8A0063C025EC3
:1010500006340E120EA030EF08F00D803BEF08F0C2
:10106000045000260550D8B0053C01260650D8B0E3
:10107000062802260D900B2E17EF08F061EF08F0FE
:10108000D8900036013602360E360450005E055008
:10109000D8A0053C015E0650D8A0063C025E06348E
:1010A0000E10010B0D26D8B00C2AD8B4082AD8A4EB
:1010B00061EF08F008320C320D32032AD8B475EF14
:1010C00008F00AAE089E0850026E0C50016E0D50DA
:1010D000006E7DEF08F0010E48EC04F07DEF08F0A3
:1010E000020E54EC00F07DEF08F0040E48EC00F026
:0C10F0007DEF08F0080E5BEC00F0120031
:1010FC00800E01013B19006E800E000A005CD8B016
:10110C006DD13B510008016E01C03BF1800E0118FE
:10111C00006E800E6E0A005CD8A0C0D0640E046E07
:10112C003BC100F0F9EC03F0120E0024056E000E2A
:10113C0000BEFF0E066E000E062205C000F006C0B3
:10114C0001F0000E06BEFF0E026E036E003600901C
:10115C00013602360336003600900136023603366D
:10116C00700E0024F66E530E0120F76E000E022056
:10117C00F86E0900F5CF3CF10900F5CF3DF10900FF
:10118C00F5CF3EF10900F5CF3FF1640E046E3BC183
:10119C0000F0F9EC03F008C000F00A0E046EF9EC54
:1011AC0003F0090E0024056E000E00BEFF0E066E45
:1011BC00000E062205C000F006C001F0000E06BEAF
:1011CC00FF0E026E036E00360090013602360336B7
:1011DC0000360090013602360336700E0024F66E8F
:1011EC00530E0120F76E000E0220F86E0900F5CFA9
:1011FC0000F00900F5CF01F00900F5CF02F009006D
:10120C00F5CF03F03CC104F03DC105F03EC106F042
:10121C003FC107F069EC03F000C03CF101C03DF1A7
:10122C0002C03EF103C03FF10A0E046E3BC100F058
:10123C00F9EC03F008C000F000C001F0000E00BE95
:10124C00FF0E026E036E046E0136019002360336F9
:10125C00043601360190023603360436700E012432
:10126C00F66E530E0220F76E000E0320F86E090086
:10127C00F5CF00F00900F5CF01F00900F5CF02F031
:10128C000900F5CF03F03CC104F03DC105F03EC1AF
:10129C0006F03FC107F069EC03F007D2800E0A0A92
:1012AC00006E800E3B19005C71E20A0E046E3BC1AD
:1012BC0000F0F9EC03F0090E0024056E000E00BEE0
:1012CC00FF0E066E000E062205C000F006C001F0EF
:1012DC00000E06BEFF0E026E036E00360090013645
:1012EC000236033600360090013602360336700E95
:1012FC000024F66E530E0120F76E000E0220F86EDD
:10130C000900F5CF3CF10900F5CF3DF10900F5CF0F
:10131C003EF10900F5CF3FF10A0E046E3BC100F01F
:10132C00F9EC03F008C000F000C001F0000E00BEA4
:10133C00FF0E026E036E046E013601900236033608
:10134C00043601360190023603360436700E012441
:10135C00F66E530E0220F76E000E0320F86E090095
:10136C00F5CF00F00900F5CF01F00900F5CF02F040
:10137C000900F5CF03F03CC104F03DC105F03EC1BE
:10138C0006F03FC107F069EC03F08FD13BC100F0D0
:10139C00000E3BBFFF0E016E026E036E0036009016
:1013AC00013602360336003600900136023603361B
:1013BC00700E0024F66E530E0120F76E000E022004
:1013CC00F86E0900F5CF00F00900F5CF01F0090027
:1013DC00F5CF02F00900F5CF03F067D1800E3B1971
:1013EC00006E800E6E0A005CD8A0C0D0640E046E35
:1013FC003BC100F0F9EC03F0120E0024056E000E58
:10140C0000BEFF0E066E000E062205C000F006C0E0
:10141C0001F0000E06BEFF0E026E036E0036009049
:10142C00013602360336003600900136023603369A
:10143C00A40E0024F66E530E0120F76E000E02204F
:10144C00F86E0900F5CF3CF10900F5CF3DF109002C
:10145C00F5CF3EF10900F5CF3FF1640E046E3BC1B0
:10146C0000F0F9EC03F008C000F00A0E046EF9EC81
:10147C0003F0090E0024056E000E00BEFF0E066E72
:10148C00000E062205C000F006C001F0000E06BEDC
:10149C00FF0E026E036E00360090013602360336E4
:1014AC0000360090013602360336A40E0024F66E88
:1014BC00530E0120F76E000E0220F86E0900F5CFD6
:1014CC0000F00900F5CF01F00900F5CF02F009009A
:1014DC00F5CF03F03CC104F03DC105F03EC106F070
:1014EC003FC107F069EC03F000C03CF101C03DF1D5
:1014FC0002C03EF103C03FF10A0E046E3BC100F086
:10150C00F9EC03F008C000F000C001F0000E00BEC2
:10151C00FF0E026E036E046E013601900236033626
:10152C00043601360190023603360436A40E01242B
:10153C00F66E530E0220F76E000E0320F86E0900B3
:10154C00F5CF00F00900F5CF01F00900F5CF02F05E
:10155C000900F5CF03F03CC104F03DC105F03EC1DC
:10156C0006F03FC107F069EC03F09FD0800E0A0A29
:10157C00006E800E3B19005C71E20A0E046E3BC1DA
:10158C0000F0F9EC03F0090E0024056E000E00BE0D
:10159C00FF0E066E000E062205C000F006C001F01C
:1015AC00000E06BEFF0E026E036E00360090013672
:1015BC000236033600360090013602360336A40E8E
:1015CC000024F66E530E0120F76E000E0220F86E0A
:1015DC000900F5CF3CF10900F5CF3DF10900F5CF3D
:1015EC003EF10900F5CF3FF10A0E046E3BC100F04D
:1015FC00F9EC03F008C000F000C001F0000E00BED2
:10160C00FF0E026E036E046E013601900236033635
:10161C00043601360190023603360436A40E01243A
:10162C00F66E530E0220F76E000E0320F86E0900C2
:10163C00F5CF00F00900F5CF01F00900F5CF02F06D
:10164C000900F5CF03F03CC104F03DC105F03EC1EB
:10165C0006F03FC107F069EC03F027D03BC100F066
:10166C00000E3BBFFF0E016E026E036E0036009043
:10167C000136023603360036009001360236033648
:10168C00A40E0024F66E530E0120F76E000E0220FD
:10169C00F86E0900F5CF00F00900F5CF01F0090054
:0C16AC00F5CF02F00900F5CF03F01200AA
:1016B8006E0E01013B5DD8A0CAD0640E046E3BC11A
:1016C80000F04FEC04F0120E0024056E066A000EBE
:1016D800062205C000F006C001F0000E06BEFF0E8F
:1016E800026E036E0036009001360236033600366D
:1016F8000090013602360336700E0024F66E530E43
:101708000120F76E000E0220F86E0900F5CF00F0F8
:101718000900F5CF01F00900F5CF02F00900F5CF77
:1017280003F0000E046E000E056E000E066E7E0EAF
:10173800076E69EC03F000C03CF101C03DF102C046
:101748003EF103C03FF1640E046E3BC100F04FEC64
:1017580004F008C000F00A0E046E4FEC04F0090E05
:101768000024056E066A000E062205C000F006C0B9
:1017780001F0000E06BEFF0E026E036E00360090EA
:10178800013602360336003600900136023603363B
:10179800700E0024F66E530E0120F76E000E022024
:1017A800F86E0900F5CF00F00900F5CF01F0090047
:1017B800F5CF02F00900F5CF03F03CC104F03DC1BC
:1017C80005F03EC106F03FC107F069EC03F000C028
:1017D8003CF101C03DF102C03EF103C03FF10A0EE9
:1017E800046E3BC100F04FEC04F008C000F000C0EC
:1017F80001F0000E026E036E046E0136019002368F
:101808000336043601360190023603360436700E6C
:101818000124F66E530E0220F76E000E0320F86EB8
:101828000900F5CF00F00900F5CF01F00900F5CF68
:1018380002F00900F5CF03F03CC104F03DC105F00A
:101848003EC106F03FC107F069EC03F0B1D03B514F
:101858000A08D8B07ED00A0E046E3BC100F04FECE7
:1018680004F0090E0024056E066A000E062205C063
:1018780000F006C001F0000E06BEFF0E026E036EF9
:1018880000360090013602360336003600900136E5
:1018980002360336700E0024F66E530E0120F76EE2
:1018A800000E0220F86E0900F5CF00F00900F5CF10
:1018B80001F00900F5CF02F00900F5CF03F0000EA2
:1018C800046E000E056E000E066E7E0E076E69EC45
:1018D80003F000C03CF101C03DF102C03EF103C07D
:1018E8003FF10A0E046E3BC100F04FEC04F008C053
:1018F80000F000C001F0000E026E036E046E0136A7
:10190800019002360336043601360190023603365A
:101918000436700E0124F66E530E0220F76E000E88
:101928000320F86E0900F5CF00F00900F5CF01F0AB
:101938000900F5CF02F00900F5CF03F03CC104F02F
:101948003DC105F03EC106F03FC107F069EC03F068
:101958002FD03BC100F0000E016E026E036E003600
:101968000090013602360336003600900136023602
:101978000336700E0024F66E530E0120F76E000E2B
:101988000220F86E0900F5CF00F00900F5CF01F04C
:101998000900F5CF02F00900F5CF03F0000E046E40
:1019A800000E056E000E066E7E0E076E69EC03F0E3
:0219B80012001B
:0819BA00067E59EC01F0120059
:1019C2000450000A08E10550000A05E1FF0E006E0E
:1019D2007F0E016E58D00D6A096A086A0150001024
:1019E200D8B4000C015005180A6E0ABE0D1E0B6A0F
:1019F20005AE05D0041E051E042AD8B4052A01AE80
:101A020005D0001E011E002AD8B4012A015005107B
:101A12000A6E0ABE10D071EC04F00BB020D00DAEED
:101A2200000C001E011E002AD8B4012A081E091E3D
:101A3200082AD8B4092A000C05AE0DD001BE07D081
:101A42000150096E0050086E016A006AE8D7016A07
:101A5200006A002A000C011E001E0B2ADDD7082A8C
:101A6200D8B4092A0450085CD8A4D9D70550095C17
:101A7200D8A4D5D7096A086A002AD8B4012A01AEC7
:081A8200CED70000FF0C12009A
:101A8A000B6A0C6A086A0350D8B4C9EF0DF002C099
:101A9A000AF0028E9E0E035E03AEB9EF0DF0036CE0
:101AAA00080E035CD8A086EF0DF0036E083600C05E
:101ABA0008F001C000F002C001F0026A080E035CDF
:101ACA00D8A086EF0DF0036E083600C008F001C0FA
:101ADA0000F0016A080E035CD8A086EF0DF0036ED1
:101AEA00083600C008F0006A080E035CD8A086EF2A
:101AFA000DF0036E0836086A0350D8A4D89092EF06
:101B0A000DF00350D8B492EF0DF0D89002320132A2
:101B1A0000320832032E8AEF0DF00BBC08A0A3EFA7
:101B2A000DF0D8A0A3EF0DF0082AD8B4002AD8B433
:101B3A00012AD8B4022A02BECDEF0DF00AAEC9EFCF
:101B4A000DF0021E011E001E081E082AD8B4002A23
:101B5A00D8B4012AD8B4022AC9EF0DF0026A016A80
:101B6A00006A086AC9EF0DF00B800BAED4EF0DF0D6
:101B7A00026A0AAED4EF0DF0026E016E006E086EB4
:101B8A000A360232D4EF0DF00C6A000ED5EF0DF0D2
:101B9A00010E0C6E000E5EEC04F0D5EF0DF0FF0E98
:101BAA000250036E0150026E0050016E0850006E22
:021BBA00120017
:0A1BBC00000E9EBA010E006E12002A
:101BC600AECF01F0ABA202D0AB98AB8801C000F05B
:021BD6001200FB
:101BD8000001919B13C13BF1C4EC06F0918B1200FC
:101BE800020E0C6E490E0D6E0D2EFED70C2EFCD774
:061BF800000000001200D5
:101BFE000C6A0E6A0250D8A418EF0EF001C002F063
:101C0E0000C001F0006A0E860250D8A418EF0EF044
:101C1E0001C002F0016A0E960E880250D8B42AEF67
:101C2E000EF00E50035ED8A4D8A030EF0EF0D89070
:101C3E0002BE36EF0EF0003601360236032E1FEFCF
:101C4E000EF030EF0EF0010E0C6E54EC00F03AEF89
:101C5E000EF0020E0C6E5BEC00F03AEF0EF0040E7E
:081C6E000C6E44EC00F01200C2
:101C760013C104F014C105F004C002F005C003F05E
:101C8600044A052A15C100F016C101F00101154BE1
:101C9600162B00C0E9FF01C0EAFF02C0E1FF03C046
:101CA600E2FFEECFE6FF02C0E9FF03C0EAFFEE5215
:0E1CB60001E0E2D713C100F014C101F01200EA
:0E1CC400ACB202D00000FCD713C1ADFF12007D
:101CD2000101336B346B276B286B15C100F016C101
:101CE20001F017C102F0010E1527000E162317236B
:101CF20000C0F6FF01C0F7FF02C0F8FF0900F5CFF0
:101D020000F000C024F10052D8B477EF1EF0245145
:101D1200250A0BE013C1E1FF14C1E2FF24C1E6FF73
:101D2200134B142B334B342BD8D7256B266B276BD5
:101D3200286B23D02787010E1527000E16231723A1
:101D420059D02781010E1527000E1623172352D0D2
:101D52002783010E1527000E162317234BD0288741
:101D6200010E1527000E1623172344D02785010ED6
:101D72001527000E162317233DD015C1F6FF16C1F5
:101D8200F7FF17C1F8FF0900F5CF01F001502D0A46
:101D9200D1E015C1F6FF16C1F7FF17C1F8FF090020
:101DA200F5CF01F00150200ACCE015C1F6FF16C1B3
:101DB200F7FF17C1F8FF0900F5CF01F001502B0A18
:101DC200C7E015C1F6FF16C1F7FF17C1F8FF0900FA
:101DD200F5CF01F00150230AC2E015C1F6FF16C18A
:101DE200F7FF17C1F8FF0900F5CF01F00150300AE3
:101DF200BDE001D09ED727A301D0279127A701D00C
:101E0200279515C1F6FF16C1F7FF17C1F8FF0900A4
:101E1200F5CF00F0000E016E00C03BF106EC07F0BA
:101E2200005236E0256B266B25C100F026C101F079
:101E32000A0E046E000E056E1EEC06F015C1F6FFCA
:101E420016C1F7FF17C1F8FF0900F5CF02F00250E3
:101E52000024256F000E0120266F300E255F000E34
:101E6200265B010E1527000E1623172315C1F6FF58
:101E720016C1F7FF17C1F8FF0900F5CF00F0000EF9
:101E8200016E00C03BF106EC07F00052CDE133D009
:101E920015C1F6FF16C1F7FF17C1F8FF0900F5CF0C
:101EA20001F001502A0A27E118C1E9FF19C1EAFF2E
:101EB200EECF00F0EECF01F000C0E9FF01C0EAFF73
:101EC200EECF25F1EECF26F118C1E9FF19C1EAFFE5
:101ED200020EEE24006E000EEE20016E18C1E1FF2C
:101EE20019C1E2FF00C0E6FF01C0E6FF010E15279F
:101EF200000E1623172315C1F6FF16C1F7FF17C1EF
:101F0200F8FF0900F5CF01F001502E0A70E1010E31
:101F12001527000E1623172315C1F6FF16C1F7FF6A
:101F220017C1F8FF0900F5CF01F001502A0A28E194
:101F320018C1E9FF19C1EAFFEECF00F0EECF01F0C0
:101F420000C0E9FF01C0EAFFEECF22F1EECF23F19C
:101F520018C1E9FF19C1EAFF020EEE24006E000E5D
:101F6200EE20016E18C1E1FF19C1E2FF00C0E6FFD9
:101F720001C0E6FF010E1527000E1623172336D0E7
:101F8200226B236B15C1F6FF16C1F7FF17C1F8FFCD
:101F92000900F5CF00F0000E016E00C03BF106EC27
:101FA20007F0005223E022C100F023C101F00A0E23
:101FB200046E000E056E1EEC06F015C1F6FF16C18A
:101FC200F7FF17C1F8FF0900F5CF02F00250002415
:101FD200226F000E0120236F300E225F000E235B62
:101FE200010E1527000E16231723CCD703D0226B20
:101FF200236B288915C100F016C101F017C102F048
:10200200010E1527000E1623172300C0F6FF01C08C
:10201200F7FF02C0F8FF0900F5CF24F1F9D033C170
:1020220000F034C101F07BEF1EF02789E3D7288549
:102032002ED1278B28812BD1288329D1278D27D1F7
:1020420026D1278B278F23D118C1E9FF19C1EAFFB7
:10205200EECF00F0EECF01F000C0E9FF01C0EAFFD1
:10206200EECF2FF1EECF30F118C1E9FF19C1EAFF2F
:10207200020EEE24006E000EEE20016E18C1E1FF8A
:1020820019C1E2FF00C0E6FF01C0E6FF000E3019F1
:1020920002E1000E2F1904E1590E2F6F000E306F6E
:1020A200316B326B31512F25E96E32513021EA6E9C
:1020B200EE520BE0010E3125006E000E3221016E50
:1020C20000C031F101C032F1EDD7225123110AE0F3
:1020D2003251235D02E13151225D04E222C131F12C
:1020E20023C132F12651325D02E12551315D05E213
:1020F2003151255F3251265B02D0256B266B27B703
:1021020016D025C100F026C101F0010E255F000E98
:10211200265B005001100BE013C1E1FF14C1E2FF86
:10212200200EE66E134B142B334B342BEAD731C1FE
:1021320002F032C103F0010E315D006E000E325921
:10214200016E00C031F101C032F10250031019E0FA
:102152002FC1E9FF30C1EAFF13C1E1FF14C1E2FF61
:10216200EECFE6FF134B142B010E2F25006E000E4F
:102172003021016E00C02FF101C030F1334B342BFE
:10218200D6D727A716D025C100F026C101F0010E2F
:10219200255F000E265B005001100BE013C1E1FF2A
:1021A20014C1E2FF200EE66E134B142B334B342B7B
:1021B200EAD793D518C1E9FF19C1EAFFEECF00F0C3
:1021C200EECF01F000C0E9FF01C0EAFFEECF24F13B
:1021D20018C1E9FF19C1EAFF020EEE24006E000EDB
:1021E200EE20016E18C1E1FF19C1E2FF00C0E6FF57
:1021F20001C0E6FF240E2F6F010E306F010E316F0A
:10220200000E326F62D7C00E2713000E28133FD084
:102212002451000AD8B403D724516C0AD8B405D784
:1022220024514C0AD8B401D72451660AD8B4FFD637
:102232002451450AD8B4FDD62451650AD8B4FAD639
:102242002451670AD8B4F8D624516F0AD8B4F6D606
:102252002451640AD8B4F4D62451690AD8B4F0D609
:102262002451700AD8B4EDD62451580AD8B4E9D60C
:102272002451780AD8B4E6D62451730AD8B4E4D6E5
:102282002451630A97E02451750ABDE0B3D7000ECA
:102292002715006E2851070B016E00500110D8B4AB
:1022A2001EEF1AF028A904D0060E226F000E236F2B
:1022B20018C1E9FF19C1EAFFEECF00F0EECF01F03D
:1022C20000C0E9FF01C0EAFFEECF29F1EECF2AF10B
:1022D200EECF2BF1EECF2CF118C1E9FF19C1EAFFC5
:1022E200040EEE24006E000EEE20016E18C1E1FF16
:1022F20019C1E2FF00C0E6FF01C0E6FF046A056AF9
:10230200066A076A29C100F02AC101F02BC102F056
:102312002CC103F05DEC06F0010ED8B0000E006E89
:10232200005205E02B7F030E2713000E28132D6B9E
:102332002E6B29C100F02AC101F02BC102F02CC181
:1023420003F0046A056A066A076A46EC06F0000EA4
:10235200D8A4010E006E0052D8B48AD02CC100F06D
:10236200016A026A036AFF0E0016000E01167E0E53
:10237200005E000E015A00C02DF101C02EF1010EC7
:10238200005E000E015A00C02DF101C02EF1030EB5
:10239200046E000E056E1EEC06F000C02DF101C0A9
:1023A2002EF10A0E046E000E056EE1EC0CF000C078
:1023B2002DF101C02EF1800E0118026E800E025C1A
:1023C20002E1000E005C05E2010E01012D5F000E2C
:1023D2002E5B01012D5100083B6F7EEC08F029C1F4
:1023E20004F02AC105F02BC106F02CC107F069ECFC
:1023F20003F000C02FF101C030F102C031F103C07F
:1024020032F1000E046E000E056E000E066E7F0E97
:10241200076E2FC100F030C101F031C102F032C1AC
:1024220003F05DEC06F0010ED8B0000E006E005213
:1024320005E0010E2D5F000E2E5B1AD0000E046E19
:10244200000E056E200E066E820E076E2FC100F082
:1024520030C101F031C102F032C103F05DEC06F08F
:10246200000ED8B0010E006E005202E02D4B2E2B52
:10247200800E006E800E2E19005C02E12D510008C4
:1024820003E3010E246F02D02DC124F128B118D02C
:1024920028A315D0800E2E19006E7F0E005C02E17B
:1024A200FC0E2D5D0BE3800E2E19006E800E23199B
:1024B200005C02E122512D5D01E201D001D0EFD397
:1024C2002251231106E028A304D0010E225F000E40
:1024D200235B2351000802E12251080803E2080E9F
:1024E200246F02D022C124F129C100F02AC101F0D7
:1024F2002BC102F02CC103F0046A056A066A076A5E
:1025020046EC06F0000ED8A4010E006E0052D8B4BC
:102512004BD12DC13BF17EEC08F000C004F001C0AC
:1025220005F002C006F003C007F029C100F02AC17D
:1025320001F02BC102F02CC103F0C0EC07F000C087
:1025420029F101C02AF102C02BF103C02CF10101D3
:10255200245100083B6F7EEC08F000C004F001C07B
:1025620005F002C006F003C007F029C100F02AC13D
:1025720001F02BC102F02CC103F0C0EC07F000C047
:1025820035F101C036F102C037F103C038F135C16F
:1025920029F136C12AF137C12BF138C12CF135C1ED
:1025A20000F036C101F037C102F038C103F012EC7D
:1025B20007F0ADEC07F000C004F001C005F002C066
:1025C20006F003C007F035C100F036C101F037C193
:1025D20002F038C103F0DDEC0CF0000E046E000EC8
:1025E200056E000E066E7E0E076E5DEC06F0000EA6
:1025F200D8B0010E006E00521AE029C100F02AC1C3
:1026020001F02BC102F02CC103F0000E046E000E8B
:10261200056E000E066E7E0E076E59EC01F000C0CC
:1026220029F101C02AF102C02BF103C02CF129C10A
:1026320000F02AC101F02BC102F02CC103F012EC10
:1026420007F001012451010F096E0A6A000E0A22E5
:1026520009C004F00AC005F0000E0ABEFF0E066EA5
:10266200076E0436049005360636073604360490A3
:10267200053606360736080E0424F66E540E05207B
:10268200F76E000E0620F86E0900F5CF05F009007E
:10269200F5CF06F00900F5CF07F00900F5CF08F0F5
:1026A2000850035C08E10750025C05E10650015C3A
:1026B20002E10550005C1EE3010129C100F02AC1BC
:1026C20001F02BC102F02CC103F0CD0E046ECC0E32
:1026D200056E4C0E066E7B0E076E69EC03F000C0B1
:1026E20029F101C02AF102C02BF103C02CF12D4BBC
:1026F2002E2B5AD029C100F02AC101F02BC102F0C1
:102702002CC103F012EC07F024C104F0000E056E98
:10271200066E076E04360490053606360736043612
:102722000490053606360736080E0424F66E540E5B
:102732000520F76E000E0620F86E0900F5CF05F0B1
:102742000900F5CF06F00900F5CF07F00900F5CF33
:1027520008F00850035C08E10750025C05E10650EE
:10276200015C02E10550005C1FE2010129C100F099
:102772002AC101F02BC102F02CC103F0000E046E3D
:10278200000E056E200E066E820E076E69EC03F0D7
:1027920000C029F101C02AF102C02BF103C02CF1C3
:1027A200010E2D5F000E2E5B010128A393D028B7E6
:1027B20091D0800E000A006E800E2319005C02E1A7
:1027C20022510A0804E20A0E226F000E236F29C169
:1027D20000F02AC101F02BC102F02CC103F012EC6F
:1027E20007F000C02FF101C030F102C031F103C087
:1027F20032F12F5130113111321142E00A0E046EC2
:10280200000E056E066E076E2FC100F030C101F09A
:1028120031C102F032C103F0A8EC04F008C000F0AC
:1028220009C001F00AC002F00BC003F0000E046EF2
:10283200031808E10450021805E10450011802E1EE
:102842000050000A1DE1010E225F000E235B0A0EFA
:10285200046E000E056E066E076E2FC100F030C1C9
:1028620001F031C102F032C103F0A8EC04F000C063
:102872002FF101C030F102C031F103C032F1B9D7FA
:10288200800E2319006E800E005C02E12451225D4D
:1028920021E22251245D3B6F7EEC08F000C004F07F
:1028A20001C005F002C006F003C007F029C100F024
:1028B2002AC101F02BC102F02CC103F0C0EC07F0D9
:1028C20000C029F101C02AF102C02BF103C02CF192
:1028D20022C124F1050E01012225006E000E2321E2
:1028E200016E0050255F0150265B2251231103E146
:1028F20028B701D004D0010E255F000E265B030E1F
:102902002715006E28C101F0000E011600500110BB
:1029120004E0010E255F000E265B27A539D027A310
:1029220012D027A103D02D0E1A6F02D02B0E1A6FD0
:1029320013C1E1FF14C1E2FF1AC1E6FF134B142BCE
:10294200334B342B0CD027A10AD013C1E1FF14C1A1
:10295200E2FF200EE66E134B142B334B342B800E0A
:10296200006E800E2619005C02E1255100080FE27C
:1029720013C1E1FF14C1E2FF300EE66E134B142BBC
:10298200334B342B010E255F000E265BE8D73AD07D
:1029920027B718D0800E006E800E2619005C02E167
:1029A200255100080FE213C1E1FF14C1E2FF200E1E
:1029B200E66E134B142B334B342B010E255F000EA6
:1029C200265BE8D727A312D027A103D02D0E1B6FB9
:1029D20002D02B0E1B6F13C1E1FF14C1E2FF1BC11A
:1029E200E6FF134B142B334B342B0CD027A10AD008
:1029F20013C1E1FF14C1E2FF200EE66E134B142B4C
:102A0200334B342B29C100F02AC101F02BC102F053
:102A12002CC103F012EC07F000C02FF101C030F11D
:102A220002C031F103C032F124C100F0000E016E88
:102A3200026E036E0036009001360236033600360F
:102A42000090013602360336080E0024F66E540E4C
:102A52000120F76E000E0220F86E0900F5CF04F097
:102A62000900F5CF05F00900F5CF06F00900F5CF12
:102A720007F02FC100F030C101F031C102F032C1C4
:102A820003F0A8EC04F0300E002613C1E1FF14C1DC
:102A9200E2FF00C0E6FF134B142B334B342B2251C1
:102AA200231103E128B701D06FD013C1E1FF14C194
:102AB200E2FF2E0EE66E134B142B334B342B2451B4
:102AC200225F000E235B24534DE0240724C100F053
:102AD200000E016E026E036E003600900136023661
:102AE200033600360090013602360336080E002403
:102AF200F66E540E0120F76E000E0220F86E0900E9
:102B0200F5CF04F00900F5CF05F00900F5CF06F086
:102B12000900F5CF07F02FC100F030C101F031C13B
:102B220002F032C103F0A8EC04F00A0E046E000EAB
:102B3200056E066E076EA8EC04F008C000F009C02E
:102B420001F00AC002F00BC003F0300E002613C1E0
:102B5200E1FF14C1E2FF00C0E6FF134B142B334B1D
:102B6200342BB1D7225123110FE013C1E1FF14C15D
:102B7200E2FF300EE66E134B142B334B342B010E57
:102B8200225F000E235BEED727AB0BD013C1E1FF10
:102B920014C1E2FF450EE66E134B142B334B342B5C
:102BA2000AD013C1E1FF14C1E2FF650EE66E134BBA
:102BB200142B334B342B800E2E19006E800E005CCA
:102BC20002E1000E2D5D11E22D5100082D6F2E51F4
:102BD200000E2E5713C1E1FF14C1E2FF2D0EE66E67
:102BE200134B142B334B342B0AD013C1E1FF14C106
:102BF200E2FF2B0EE66E134B142B334B342B0A0ED3
:102C0200046E000E056E2DC100F02EC101F0E1EC44
:102C12000CF0300E002613C1E1FF14C1E2FF00C028
:102C2200E6FF0101134B142B334B342B0A0E046EB7
:102C3200000E056E2DC100F02EC101F0E1EC0CF08A
:102C420008C000F009C001F0300E002613C1E1FFF8
:102C520014C1E2FF00C0E6FF0101134B142B334BFA
:102C6200342B27A71AD0800E006E800E2619005C26
:102C720002E12551000811E213C1E1FF14C1E2FF94
:102C8200200EE66E134B142B334B342B010E255FB3
:102C9200000E265B25512611EFE16EEF0EF028A300
:102CA200F3D0800E2E19006E800E005C02E1000E41
:102CB2002D5D0AE2010E2D5D006E000E2E59016E91
:102CC2000050225F0150235B29C100F02AC101F0AC
:102CD2002BC102F02CC103F012EC07F000C02FF15F
:102CE20001C030F102C031F103C032F1010E246F94
:102CF20024510A0A34E024C100F0000E016E026E73
:102D0200036E00360090013602360336003600901C
:102D1200013602360336080E0024F66E540E0120E8
:102D2200F76E000E0220F86E0900F5CF01F00900DF
:102D3200F5CF02F00900F5CF03F00900F5CF04F05A
:102D42000450325D08E10350315D05E10250305D0F
:102D520002E101502F5D01E202D0242BC9D7245198
:102D6200225D396F000E23593A6F39C122F13AC1FF
:102D720023F12FC100F030C101F031C102F032C1A4
:102D820003F0ADEC07F000C004F001C005F002C092
:102D920006F003C007F029C100F02AC101F02BC1DF
:102DA20002F02CC103F0DDEC0CF000C035F101C0E3
:102DB20036F102C037F103C038F139C13BF17EEC84
:102DC20008F035C104F036C105F037C106F038C14C
:102DD20007F069EC03F0000E046E000E056E000EA3
:102DE200066E7E0E076E59EC01F012EC07F000C081
:102DF2002FF101C030F102C031F103C032F1225192
:102E0200231142E00A0E046E000E056E066E076E76
:102E12002FC100F030C101F031C102F032C103F024
:102E2200A8EC04F008C000F009C001F00AC002F0EA
:102E32000BC003F0000E046E031808E104500218E0
:102E420005E10450011802E10050000A1DE10A0EDA
:102E5200046E000E056E066E076E2FC100F030C1C3
:102E620001F031C102F032C103F0A8EC04F000C05D
:102E72002FF101C030F102C031F103C032F1010E75
:102E8200225F000E235BBBD7800E006E800E2319DB
:102E9200005C02E122510C0816E322C13BF15CEC1A
:102EA2000BF029C104F02AC105F02BC106F02CC198
:102EB20007F059EC01F000C029F101C02AF102C06B
:102EC2002BF103C02CF129C100F02AC101F02BC162
:102ED20002F02CC103F0046A056A066A076A46EC2E
:102EE20006F0000ED8A4010E006E0052D8B477D0BE
:102EF20029C100F02AC101F02BC102F02CC103F05C
:102F020012EC07F0000E046E031808E104500218D8
:102F120005E10450011802E10050000A60E1800E50
:102F2200006E800E2E19005C02E12D51010857E25D
:102F32002DC13BF17EEC08F000C004F001C005F0A9
:102F420002C006F003C007F029C100F02AC101F057
:102F52002BC102F02CC103F0C0EC07F05F0E046E2F
:102F6200700E056E090E066E810E076E5DEC06F0A0
:102F7200010ED8B0000E006E005206E0090E0101EB
:102F82002D5F000E2E5B05D00101080E2D5F000E95
:102F92002E5B2DC13BF17EEC08F000C004F001C0B5
:102FA20005F002C006F003C007F029C100F02AC1F3
:102FB20001F02BC102F02CC103F0C0EC07F012ECBF
:102FC20007F000C02FF101C030F102C031F103C09F
:102FD20032F10101296B2A6B2B6B2C6B38D029C182
:102FE20000F02AC101F02BC102F02CC103F012EC57
:102FF20007F000C02FF101C030F102C031F103C06F
:1030020032F12FC100F030C101F031C102F032C102
:1030120003F0ADEC07F000C004F001C005F002C0FF
:1030220006F003C007F029C100F02AC101F02BC14C
:1030320002F02CC103F0DDEC0CF000C029F101C05C
:103042002AF102C02BF103C02CF12D6B2E6B010E65
:10305200246F24510A0A34E024C100F0000E016EEC
:10306200026E036E003600900136023603360036D9
:103072000090013602360336080E0024F66E540E16
:103082000120F76E000E0220F86E0900F5CF01F064
:103092000900F5CF02F00900F5CF03F00900F5CFE2
:1030A20004F00450325D08E10350315D05E1025045
:1030B200305D02E101502F5D01E202D0242BC9D71D
:1030C20024512225006E000E2321016E2D5100266F
:1030D2002E5101220050255F0150265B28B704D0F3
:1030E2002251231101E104D0010E255F000E265B5F
:1030F200030E2715006E28C101F0000E01160050C4
:10310200011004E0010E255F000E265B27A539D0D1
:1031120027A312D027A103D02D0E1C6F02D02B0E95
:103122001C6F13C1E1FF14C1E2FF1CC1E6FF134B88
:10313200142B334B342B0CD027A10AD013C1E1FF3F
:1031420014C1E2FF200EE66E134B142B334B342BCB
:10315200800E006E800E2619005C02E125510008E7
:103162000FE213C1E1FF14C1E2FF300EE66E134B12
:10317200142B334B342B010E255F000E265BE8D750
:103182003AD027B718D0800E006E800E2619005C48
:1031920002E1255100080FE213C1E1FF14C1E2FF71
:1031A200200EE66E134B142B334B342B010E255F8E
:1031B200000E265BE8D727A312D027A103D02D0E3D
:1031C2001D6F02D02B0E1D6F13C1E1FF14C1E2FF70
:1031D2001DC1E6FF134B142B334B342B0CD027A10C
:1031E2000AD013C1E1FF14C1E2FF200EE66E134BB9
:1031F200142B334B342B24C100F0240700524CE033
:1032020024C100F0000E016E026E036E00360090C3
:103212000136023603360036009001360236033696
:10322200080E0024F66E540E0120F76E000E0220E6
:10323200F86E0900F5CF04F00900F5CF05F009009A
:10324200F5CF06F00900F5CF07F02FC100F030C12D
:1032520001F031C102F032C103F0A8EC04F00A0E11
:10326200046E000E056E066E076EA8EC04F008C030
:1032720000F009C001F00AC002F00BC003F0300EEA
:10328200002613C1E1FF14C1E2FF00C0E6FF134BA9
:10329200142B334B342BAFD7800E006E800E2E19B9
:1032A200005C02E12D5100080FE213C1E1FF14C1DD
:1032B200E2FF300EE66E134B142B334B342B010E10
:1032C2002D5F000E2E5BE8D7800E000A006E800E86
:1032D2002319005C02E12251080803E2080E246F60
:1032E20002D022C124F12451225F000E235B245319
:1032F20003E128B701D00AD013C1E1FF14C1E2FFF4
:103302002E0EE66E134B142B334B342B24C13BF1A0
:103312007EEC08F029C104F02AC105F02BC106F0A9
:103322002CC107F069EC03F045EC0DF000C02FF161
:1033320001C030F102C031F103C032F124534DE03B
:10334200240724C100F0000E016E026E036E0036E7
:1033520000900136023603360036009001360236FE
:103362000336080E0024F66E540E0120F76E000E8E
:103372000220F86E0900F5CF04F00900F5CF05F040
:103382000900F5CF06F00900F5CF07F02FC100F0D4
:1033920030C101F031C102F032C103F0A8EC04F0F7
:1033A2000A0E046E000E056E066E076EA8EC04F09F
:1033B20008C000F009C001F00AC002F00BC003F01F
:1033C200300E002613C1E1FF14C1E2FF00C0E6FF88
:1033D200134B142B334B342BB1D7225123110FE053
:1033E20013C1E1FF14C1E2FF300EE66E134B142B42
:1033F200334B342B010E225F000E235BEED727A73F
:103402001AD0800E006E800E2619005C02E1255152
:10341200000811E213C1E1FF14C1E2FF200EE66EC3
:10342200134B142B334B342B010E255F000E265BFE
:1034320025512611EFE16EEF0EF0C00E2715016E39
:1034420028C102F0000E0216000E021802E1000E60
:103452000118D8A480D027A927D018C1E9FF19C123
:10346200EAFFEECF00F0EECF01F000C0E9FF01C0AD
:10347200EAFFEECF2FF1EECF30F1EECF31F1EECF0A
:1034820032F118C1E9FF19C1EAFF040EEE24006E01
:10349200000EEE20016E18C1E1FF19C1E2FF00C06B
:1034A200E6FF01C0E6FF2FD018C1E9FF19C1EAFF0C
:1034B200EECF00F0EECF01F000C0E9FF01C0EAFF5D
:1034C200EECF00F0EECF01F0000E01BEFF0E026E55
:1034D200036E00C02FF101C030F102C031F103C010
:1034E20032F118C1E9FF19C1EAFF020EEE24006EA3
:1034F200000EEE20016E18C1E1FF19C1E2FF00C00B
:10350200E6FF01C0E6FF800E3219006E800E005CFD
:1035120008E1000E315D05E1000E305D02E1000EB2
:103522002F5D18E2030E2713000E2813006A016AAA
:10353200026A036A2F51005E3051015A3151025A18
:103542003251035A00C02FF101C030F102C031F1F3
:1035520003C032F14ED027A927D018C1E9FF19C103
:10356200EAFFEECF00F0EECF01F000C0E9FF01C0AC
:10357200EAFFEECF2FF1EECF30F1EECF31F1EECF09
:1035820032F118C1E9FF19C1EAFF040EEE24006E00
:10359200000EEE20016E18C1E1FF19C1E2FF00C06A
:1035A200E6FF01C0E6FF25D018C1E9FF19C1EAFF15
:1035B200EECF00F0EECF01F000C0E9FF01C0EAFF5C
:1035C200EECF2FF1EECF30F1000E316F326F18C116
:1035D200E9FF19C1EAFF020EEE24006E000EEE2092
:1035E200016E18C1E1FF19C1E2FF00C0E6FF01C090
:1035F200E6FF000E231902E1000E22190FE1000E70
:10360200006E321908E10050311905E100503019FD
:1036120002E12F51000A02E1224B232BC00E271593
:10362200006E00C005F0AED0010E246F24510A0ACC
:1036320034E024C100F0000E016E026E036E00360B
:10364200009001360236033600360090013602360B
:103652000336080E0024F66E540E0120F76E000E9B
:103662000220F86E0900F5CF01F00900F5CF02F053
:103672000900F5CF03F00900F5CF04F00450325DE4
:1036820008E10350315D05E10250305D02E1015075
:103692002F5D01E202D0242BC9D782D0010E246F04
:1036A2002451080A34E024C100F0000E016E026EBB
:1036B200036E003600900136023603360036009063
:1036C200013602360336300E0024F66E540E012007
:1036D200F76E000E0220F86E0900F5CF01F0090026
:1036E200F5CF02F00900F5CF03F00900F5CF04F0A1
:1036F2000450325D08E10350315D05E10250305D56
:1037020002E101502F5D01E202D0242BC9D748D03B
:10371200010E246F24510C0A34E024C100F0000E83
:10372200016E026E036E00360090013602360336D9
:1037320000360090013602360336D80E0024F66EAB
:10374200530E0120F76E000E0220F86E0900F5CF2D
:1037520001F00900F5CF02F00900F5CF03F00900EE
:10376200F5CF04F00450325D08E10350315D05E10C
:103772000250305D02E101502F5D01E202D0242BA4
:10378200C9D70ED00550000AD8B44ED70550C00A8A
:10379200D8B44AD70550800A81E00550400AB8E003
:1037A200800E006E800E2319005C02E12251245D1E
:1037B20003E222C124F10DD0800E2319006E800E87
:1037C200005C02E12451225D04E224C122F1000ED8
:1037D200236F255126110EE0030E2715006E28C116
:1037E20001F0000E01160050011004E0010E255FE9
:1037F200000E265B800E2319006E800E2619005CD7
:1038020002E12551225D05E22251255F2351265B0B
:1038120002D0256B266BC40E2715016E2851080BAA
:10382200026E0250080A02E1400E011808E1255119
:10383200261104E0010E255F000E265B1CD0C00E8F
:103842002715016E2851080B026E0250080A02E188
:10385200800E011810E1800E006E800E2619005CA9
:1038620002E12551020805E2020E255F000E265BE9
:1038720002D0256B266B27A55DD027A312D027A1E6
:1038820003D02D0E1E6F02D02B0E1E6F13C1E1FF4F
:1038920014C1E2FF1EC1E6FF134B142B334B342B32
:1038A20034D027A10BD013C1E1FF14C1E2FF200ED7
:1038B200E66E134B142B334B342B27D0C00E271537
:1038C200016E2851080B026E0250080A02E1800EB6
:1038D20001181BE113C1E1FF14C1E2FF300EE66ED5
:1038E200134B142B334B342B27AB03D0580E1F6FC3
:1038F20002D0780E1F6F13C1E1FF14C1E2FF1FC196
:10390200E6FF134B142B334B342B2551261111E0B8
:1039120013C1E1FF14C1E2FF300EE66E134B142B0C
:10392200334B342B010E255F000E265B25512611E9
:10393200EFE174D02551261113E027B711D013C13E
:10394200E1FF14C1E2FF200EE66E134B142B334B42
:10395200342B010E255F000E265B25512611EFE167
:1039620027A312D027A103D02D0E206F02D02B0E39
:10397200206F13C1E1FF14C1E2FF20C1E6FF134B28
:10398200142B334B342B0CD027A10AD013C1E1FFE7
:1039920014C1E2FF200EE66E134B142B334B342B73
:1039A200C00E2715016E2851080B026E0250080A3C
:1039B20002E1400E01180BE113C1E1FF14C1E2FF65
:1039C200300EE66E134B142B334B342B27D0C00E24
:1039D2002715016E2851080B026E0250080A02E1F7
:1039E200800E01181BE113C1E1FF14C1E2FF300E8A
:1039F200E66E134B142B334B342B27AB03D0580EEC
:103A0200216F02D0780E216F13C1E1FF14C1E2FFD2
:103A120021C1E6FF134B142B334B342B800E006E67
:103A2200800E2319005C02E12251245D0BE213C1D6
:103A3200E1FF14C1E2FF300EE66E134B142B334B41
:103A4200342BECD722C100F023C101F0010E225F1A
:103A5200000E235B00500110D8B42AD1C00E2715E6
:103A6200006E00C035F10AD122C100F023C101F07D
:103A7200000E23BFFF0E026E036E00360090013669
:103A82000236033600360090013602360336080E3F
:103A92000024F66E540E0120F76E000E0220F86E1E
:103AA2000900F5CF04F00900F5CF05F00900F5CFC4
:103AB20006F00900F5CF07F02FC100F030C101F088
:103AC20031C102F032C103F0A8EC04F00A0E046E18
:103AD200000E056E066E076EA8EC04F008C000F03A
:103AE20009C001F00AC002F00BC003F0300E00243E
:103AF200246FD3D027AB45D022C100F023C101F0FF
:103B0200000E23BFFF0E026E036E003600900136D8
:103B12000236033600360090013602360336300E86
:103B22000024F66E540E0120F76E000E0220F86E8D
:103B32000900F5CF04F00900F5CF05F00900F5CF33
:103B420006F00900F5CF07F02FC100F030C101F0F7
:103B520031C102F032C103F0A8EC04F00F0E0016DE
:103B6200000E011602160316870E0024F66E540E7E
:103B72000120F76E000E0220F86E0900F5CF24F145
:103B820044D022C100F023C101F0000E23BFFF0E7A
:103B9200026E036E0036009001360236033600369E
:103BA2000090013602360336300E0024F66E540EB3
:103BB2000120F76E000E0220F86E0900F5CF04F026
:103BC2000900F5CF05F00900F5CF06F00900F5CFA1
:103BD20007F02FC100F030C101F031C102F032C153
:103BE20003F0A8EC04F00F0E0016000E01160216E8
:103BF2000316760E0024F66E540E0120F76E000EA8
:103C02000220F86E0900F5CF24F147D022C100F05E
:103C120023C101F0000E23BFFF0E026E036E0036B9
:103C22000090013602360336003600900136023625
:103C32000336D80E0024F66E530E0120F76E000EE6
:103C42000220F86E0900F5CF04F00900F5CF05F067
:103C52000900F5CF06F00900F5CF07F02FC100F0FB
:103C620030C101F031C102F032C103F0A8EC04F01E
:103C7200070E0014246F300E24270FD03551000A8E
:103C8200D8B4F2D63551C00AD8B4EED63551800A2E
:103C9200D8B430D73551400AB9E013C1E1FF14C19D
:103CA200E2FF24C1E6FF134B142B334B342BCAD64D
:103CB20027A71AD0800E006E800E2619005C02E142
:103CC2002551000811E213C1E1FF14C1E2FF200EE9
:103CD200E66E134B142B334B342B010E255F000E73
:103CE200265B25512611EFE16EEF0EF033C100F095
:063CF20034C101F01200D4
:103CF800220E0C6E086A096A0A6A0B6A0C06D8B4A6
:103D08001FD0D8900B320A320932083203320232FD
:103D180001320032D8A0F2D70C06D8B409D004502A
:103D280008260550092206500A2207500B22EAD716
:103D3800045008260550092206500A2207500B2273
:023D4800120067
:103D4A00400E006E1F0E016E000E026E036E120010
:103D5A00086A096A100E0C6E0134083609360450D6
:103D6A00085E0550D8A0053C095ED8B007D00450BB
:103D7A0008260550D8B0053C0926D89000360136E9
:063D8A000C2EEAD7120026
:0C3D90000E0E0D6E0D2EFED7000012006E
:103D9C0001011307130713C101F0130701500008A9
:103DAC0003E200000000F7D7000000000000000054
:043DBC0000001200F1
:103DC000D00E0101056F070E066F000E076F086F1A
:103DD000D00E006E070E016E000E026E000E036E16
:103DE000FDC004F0FEC005F0000E066E076E84DF15
:103DF00000C005F101C006F102C007F103C008F1DF
:103E0000000E035C08E1000E025C05E1020E015C9D
:103E100002E1940E005C01E231D0940E055F020EC7
:103E2000065B000E075B085B050E006E005007E0A6
:103E30000833073306330533089FFF0FF8D705C152
:103E400000F006C101F007C102F008C103F0010E45
:103E5000055F000E065B075B085B00500110021057
:103E600003100CE000000000000000000000000053
:0E3E700000000000000000000000E1D712007A
:103E7E0005C1E9FF06C1EAFFEE5211E005C1E9FFF7
:103E8E0006C1EAFF07C1D9FF08C1DAFFEE50DE18FE
:103E9E0006E10101054B062B074B082BE9D705C19F
:103EAE00E9FF06C1EAFF07C1D9FF08C1DAFFDE50FC
:0C3EBE00EE5C006E016A000E015A12005A
:103ECA000A0E0001FF6F010E0101006F05C113F117
:103EDA0006C114F107C115F108C116F109C117F19C
:103EEA00FF0E186F000E196F69EC0EF000C0FDF09E
:103EFA0001C0FEF000500525E16E01500621E26E78
:0C3F0A00E66AFDC000F0FEC001F01200ED
:103F16000B6A0350D8B4D1EF1FF002500A6E028E1E
:103F26008E0E035E03AED5EF1FF0036C080E035C26
:103F3600D8A0B0EF1FF0036E013602C001F0026A8E
:103F4600080E035CD8A0B0EF1FF0036E0136016ABD
:103F56000350D8A4D890BAEF1FF00350D8B4BAEFE4
:103F66001FF0D89002320132032EB4EF1FF00BBCC3
:103F760001A0C7EF1FF0D8A0C7EF1FF0012AD8B4E1
:103F8600022A02BEE4EF1FF00AAEEAEF1FF0021E9D
:103F9600011E012AD8B4022AEAEF1FF0026A016A5A
:103FA600EAEF1FF00B800BAEEEEF1FF0026A0AAECF
:103FB600EEEF1FF0FF0E026E016E0A360232EEEFD2
:103FC6001FF0010E0C6E5EEC04F0F0EF1FF0000E19
:103FD6000C6EF0EF1FF0FF0E0C6E0150006E0250DB
:043FE600016E120056
:103FEA000001FE6B07C101F0010E006E015004E0F2
:103FFA0000360090FF0FFBD700C0FDF005C1E9FFB6
:10400A0006C1EAFF0050EE14016E0152010ED8A457
:10401A00000E006E01010951001A1DE00851000846
:10402A0006E2F4EC0DF0F4EC0DF00807F7D705C141
:10403A00E9FF06C1EAFF0001FD51EE14016E0152CB
:10404A00010ED8A4000E006E01010951001A03E006
:0C405A00FF0E0001FE6FFEC000F012001F
:104066000101466B476B445344E04451FF0AD8A410
:104076004407DEEC0DF00050000A01E1FAD7E3EC4C
:104086000DF000C045F1010146514025E16E000EDC
:104096004121E26E00C0E6FF462B47514225E96EFC
:1040A600000E4321EA6EEE50451902E1472B09D076
:1040B600476B42C1E9FF43C1EAFFEE504519D8B448
:1040C600472B47514225E96E000E4321EA6EEE501A
:1040D600000A0EE14751465D006E016A000E015A64
:1040E60000504025E16E01504121E26EE66A06D09D
:0E40F600BAD740C1E1FF41C1E2FFE66A120005
:10410400FDC0E9FFFEC0EAFFEECF05F1000E01019C
:10411400066F000E066F000E061902E1200E051947
:1041240007E0000E061902E1090E051901E004D0AA
:104134000001FD4BFE2BE4D70101076B086B096BF3
:104144000A6B000E061902E12D0E051906E1094B52
:104154000A2B0001FD4BFE2B0AD0000E01010619AB
:1041640002E12B0E051903E10001FD4BFE2BFDC0FE
:10417400E9FFFEC0EAFFEECF05F1000E0101066F74
:10418400000E066F05C13BF106EC07F000521AE081
:1041940007C100F008C101F00A0E046E000E056E9E
:1041A4001EEC06F0300E055D026E000E0659036E1D
:1041B40002500024076F03500120086F0001FD4BDB
:1041C400FE2BD5D7010109510A1108E00751000857
:1041D400006E08C101F0000E015604D007C100F0C2
:0641E40008C101F0120009
:1041EA000001FF6B0101006B106B116B126B05C1B3
:1041FA000CF106C10DF107C10EF108C10FF10F5103
:10420A00FF0A08E10E51FF0A05E10D51FF0A02E11A
:10421A000C51FF0A0DE109C113F10AC114F11D0E77
:10422A00156F000E166F3BEC0EF0030E006E71D286
:10423A00010E0001FD6F01010EAF11D0800E0E19A3
:10424A00006E00C00EF10001FD2B0101002B09C117
:10425A00E1FF0AC1E2FF2D0EE66E094B0A2B000EA2
:10426A00006E0F1908E100500E1905E100500D19F2
:10427A0002E10C51000A0CE109C113F10AC114F15F
:10428A003A0E156F000E166F3BEC0EF0006A41D223
:10429A000F51FF0A08E10E51000A05E10D51000A0B
:1042AA0002E10C51000A0DE109C113F10AC114F12E
:1042BA00360E156F000E166F3BEC0EF0FDC000F0C7
:1042CA0028D2000E046E000E056E000E066E7F0EDA
:1042DA00076E0CC100F00DC101F00EC102F00FC152
:1042EA0003F05DEC06F0010ED8B0000E006E00522D
:1042FA001CE00CC100F00DC101F00EC102F00FC1AB
:10430A0003F0000E046E000E056E200E066E820E7D
:10431A00076E69EC03F000C00CF101C00DF102C098
:10432A000EF103C00FF11207CCD7000E046E000E77
:10433A00056E200E066E820E076E0CC100F00DC1CE
:10434A0001F00EC102F00FC103F05DEC06F0000EA1
:10435A00D8B0010E006E00521CE00CC100F00DC175
:10436A0001F00EC102F00FC103F0CD0E046ECC0EA7
:10437A00056E4C0E066E7B0E076E69EC03F000C0EC
:10438A000CF101C00DF102C00EF103C00FF1122BA6
:10439A00CCD7FF0E0C15086EFF0E0D15096E7F0E99
:1043AA000E150A6E000E0F150B6E08C004F009C038
:1043BA0005F00AC006F00BC007F004360490053673
:1043CA0006360736000E0C15006E000E0D15016E2E
:1043DA00000E0E15026EFF0E0F15036E00C00CF1D3
:1043EA0001C00DF102C00EF103C00FF104500C110F
:1043FA00006E05500D11016E06500E11026E075027
:10440A000F11036E00C00CF101C00DF102C00EF1D4
:10441A0003C00FF17F0E0F5D006E00C0FEF0010EAB
:10442A000F6F00C004F00CC100F00DC101F00EC105
:10443A0002F00FC103F0045007E000360090013685
:10444A0002360336FF0FF8D700C00CF101C00DF198
:10445A0002C00EF103C00FF109C1E1FF0AC1E2FF78
:10446A000F51300FE66E094B0A2B002B800E1219E2
:10447A00006E800E010A005C08E3800E060A006ED8
:10448A00800E1219005C01E30DD009C1E1FF0AC1D7
:10449A00E2FF2E0EE66E094B0A2B010E0001FF6F9A
:1044AA000101002B060E0001FE6FFE51000A5EE0BC
:1044BA0001010F6B0CC100F00DC101F00EC102F039
:1044CA000FC103F00036009001360236033600367B
:1044DA0000900136023603360C5100260D51012296
:1044EA000E5102220F51032200C00CF101C00DF13E
:1044FA0002C00EF103C00FF10CC100F00DC101F0B2
:10450A000EC102F00FC103F00036009001360236E8
:10451A00033600C00CF101C00DF102C00EF103C058
:10452A000FF109C1E1FF0AC1E2FF0F51300FE66E38
:10453A00094B0A2B002B0001FF51000A14E101016B
:10454A0012071251000A0FE1010E116F09C1E1FFB2
:10455A000AC1E2FF2E0EE66E094B0A2B010E00017C
:10456A00FF6F0101002B0001FE079FD701011151C6
:10457A00010AD8B40007FF0E0925E96EFF0E0A21C9
:10458A00EA6EEE502E0A05E1010E095F000E0A5B83
:10459A000007800E000A006E800E1219005C02E20B
:1045AA00010E106F800E1219006E800E000A005C58
:1045BA0002E2020E106F12C1FEF0800E090A006EAE
:1045CA00800E1219005C02E3102B02D0020E102793
:1045DA0010510025016E026A000E0222800E021896
:1045EA00006E800E005C02E10B51015C0AE209C117
:1045FA00E1FF0AC1E2FF300EE66E094B0A2B002BDF
:10460A00E7D71251000A43E009C1E1FF0AC1E2FFFC
:10461A00650EE66E094B0A2B800E1219006E800E8B
:10462A00000A005C0BE209C1E1FF0AC1E2FF2D0E9C
:10463A00E66E094B0A2B12510008126F12C1FEF0E6
:10464A00800E090A006E800E1219005C0FE20A0E33
:10465A00046EFEC000F0F9EC03F009C1E1FF0AC1E3
:10466A00E2FF0050300FE66E094B0A2B0A0E046E69
:10467A00FEC000F0F9EC03F008C000F009C1E1FF48
:10468A000AC1E2FF0050300FE66E094B0A2B1051A7
:10469A000025006E00C000F10B51005C016E01C0E4
:1046AA00FEF0800E000A006E800E0118005C10E217
:1046BA00800E000A006E800E0001FE19005C07E2FF
:1046CA00FE07010E0101095F000E0A5BF1D71BD03C
:1046DA00800E0001FE19006E800E000A005C13E2D3
:1046EA000001800EFE19006E800E000A005C0BE2CB
:1046FA00FE2B09C1E1FF0AC1E2FF300EE66E01019D
:10470A00094B0A2BEDD709C1E1FF0AC1E2FFE66AAC
:04471A00006A12001F
:10471E0005C102F006C103F008C100F009C101F0A5
:10472E00010E0101085F000E095B0050011009E047
:10473E0002C0E1FF03C0E2FF07C1E6FF024A032AFF
:0C474E00EBD705C100F006C101F012001D
:10475A000101006BFDC0E9FFFEC0EAFFEECFFFF0EA
:10476A000001FF51000A10E0FFC013F162EC0EF0E5
:10477A000101002B00510001FD25E96E000EFE210A
:0A478A00EA6EEECFFFF0ECD712004C
:10479400FDC000F00032009E0032009E0032009EF8
:1047A4000032009E0A0E0002F3CF01F00F0E00014A
:0A47B400FD15006E015000261200F2
:1047BE000B6A0C6A0A6A0350D8B414EF24F00A9EEE
:1047CE00028E860E035E03BEF2EF23F0D8B4F2EF34
:1047DE0023F017EF24F0036C080E035CD8A000EF53
:1047EE0024F0036E0236026A0350D8A4D89009EF63
:1047FE0024F00350D8B409EF24F0D8900232032EDF
:10480E0004EF24F00BBC02A014EF24F0D8A014EF98
:10481E0024F0022AD8B41EEF24F0016A24EF24F00B
:10482E000B800BAE28EF24F0016A28EF24F0010E66
:10483E000C6E5EEC04F02AEF24F0000E0C6E2AEFE4
:0C484E0024F0FF0E0C6E0250006E1200F1
:10485A00939A93989390939293949396819A81982A
:10486A0081968194819281909DEC04F09DEC04F0F4
:10487A009DEC04F081828180818A4CEC04F0819A5B
:10488A009DEC04F0818A4CEC04F0819A9DEC04F0D2
:10489A00818A4CEC04F0819A9DEC04F08190818A23
:1048AA004CEC04F0819A9DEC04F0818A4CEC04F003
:1048BA00819A81928186818A4CEC04F0819A9DECDE
:1048CA0004F081968180818A4CEC04F0819A81906F
:1048DA00818A4CEC04F0819A9DEC04F0818A4CECBC
:1048EA0004F0819A8180818A4CEC04F0819A9DECD3
:1048FA0004F08190818A4CEC04F0819A818681844B
:10490A0081828180818A4CEC04F0819A9DEC04F0CA
:06491A000001918B120068
:10492000FF0E00018D6FFF0E8E6F000E8F6F000E59
:10493000906FFF0E896FFF0E8A6F000E8B6F000E57
:104940008C6FFF0E7D6FFF0E7E6F000E7F6F000E6F
:10495000806FFF0E796FFF0E7A6FFF0E7B6FFF0E79
:104960007C6FFF0E856FFF0E866FFF0E876FFF0E49
:10497000886FFF0E816FFF0E826F000E836F000E37
:10498000846F949894968B988B9694889486C79EFF
:08499000C79C380EC66E120030
:104998000900F5CFE6FF0006FBE10106F9E1120088
:1049A800FDC0EFF0FEC0F0F0FFC001F0010E006E98
:1049B800015004E000360090FF0FFBD700C0EEF076
:1049C800001E00C0EDF0120E0001FD25E96E000E7C
:1049D800FE21EA6E0050EF16120EE95E0050EF1647
:0249E8001200BB
:1049EA00C40E0001F96F1C0EFA6F130EFB6F010E55
:1049FA00FC6FC60E0101016F1B0E026F000E036FE2
:104A0A00000E046FBC0E0001F56F1B0EF66F000E50
:104A1A00F76F000EF86FFF0EF16FFF0EF26F000EC8
:104A2A00F36F000EF46FAC8A900EAB6E948E949C6A
:0C4A3A009EAA03D0AECF00F0FBD7120004
:104A4600C26A211C006E0050C1160F0EC012C08E25
:104A5600FDC000F000360090003600900050C212F3
:104A6600C280C8EC1EF0C282C2A201D0FDD7C4CF5C
:104A760001F0006A00C0FEF001C0FFF0C350001252
:104A8600000E011200C0FEF001C0FFF0C290000E41
:104A96000014026E0150800B036E000E031802E133
:104AA600000E021803E00001FE6BFF6BFEC000F073
:064AB600FFC001F0120038
:104ABC000050086E0150006E016A026A036A0B6AAC
:104ACC000C6A960E036E0A6A00C001F008C000F072
:0A4ADC00086A026AFFEC0DF01200F8
:104AE60010D0800E0101056F1AD0C00E056F17D0C9
:104AF600940E056F14D0D40E056F11D0800E056F7D
:104B06000ED001010551010AECE00551020AEDE063
:104B16000551030AEDE00551040AEDE0EFD706055D
:104B2600006E0551002600C005F100C03BF1C4EC43
:104B360006F0919BFD6BFD5101010725E96E000E04
:104B46000821EA6EEE520EE00001FD510101072533
:104B5600E96E000E0821EA6EEECF13F1ECEC0DF0D3
:0A4B6600FD2BE9D70001918B12002E
:104B7000A5EC1EF0E80E046E030E056E000E066E28
:104B8000076E7CEC1EF000C00BF101C00CF102C0FE
:104B90000DF103C00EF105C104F006C105F0000ED1
:104BA000066E076EA8EC04F000C00BF101C00CF11A
:104BB00002C00DF103C00EF100C005F001C006F007
:104BC00002C007F003C008F008320732063205328F
:104BD000089E0832073206320532089E05C000F0F2
:104BE00006C001F007C002F008C003F00332023231
:104BF00001320032039E00C0FDF001C0FEF0A5ECC2
:104C00001EF007C104F008C105F0000E066E076E25
:104C10007CEC1EF0FDC009F0FEC00AF0000E0B6E29
:104C20000C6E030E086E09C004F00AC005F00BC03C
:104C300006F00CC007F0085007E004360490053673
:104C400006360736FF0FF8D7A8EC04F000C00BF1CA
:104C500001C00CF102C00DF103C00EF10A0E046E8A
:104C6000000E056EFDC000F0FEC001F0ADEC1EF0C0
:104C700000C0FDF001C0FEF0000E015C02E1030E79
:104C8000005C01E24FD0EFC0E9FFF0C0EAFF010194
:104C90000E51000808E10D51000805E10C51000813
:104CA00002E10B5100083BE20001EE51EF12FE530E
:104CB00011E00101096B0A6B000E0A5D04E10001BD
:104CC000FE510101095D06E2136BCEEC1EF0094BAB
:104CD0000A2BF2D7FDC013F1CEEC1EF00001ED510E
:104CE000EF16FE5311E00101096B0A6B000E0A5D1D
:104CF00004E10001FE510101095D06E2136BCEECF7
:104D00001EF0094B0A2BF2D7FDC013F1CEEC1EF0BA
:104D1000010E0B5F000E0C5B0D5B0E5BB8D7000144
:064D2000ED51EF16120038
:104D26005EEC2AF0030E0F01386F396B3A6B3B6B62
:104D3600030E926EC00E936E956A9680F286628C12
:104D4600628EF28A880ED56ED80ED76EF00ED66EAB
:104D5600F28E840E0001FD6F0F0EFE6F010EFF6FC7
:104D660020DE78DD0C0E01013B6FC4EC06F0140E5C
:104D7600C86ED3DDB886B06ACF0EAF6EAC8432DEB5
:104D86009D8A9E9AF28C919391979199799E789E9D
:104D9600918591A5C4D291A72DD091978C6A010EC9
:104DA60001013B6FC4EC06F0010E0101056F010E17
:104DB600066F3E0E076F000E086F92DE81AC1AD0AA
:104DC6008C1E060E0B6E130E0C6EAD0E0D6E0D2E9A
:104DD600FED70C2EFCD70B2EFAD700000000D00E03
:104DE6000101056F070E066FE80E076F030E086FC9
:104DF600BCDEE4D7010E0001FD6F22DE5CDE00C0E2
:104E06004DF001C04EF002C04FF003C050F0D4DCAC
:104E160000C0FDF0BCDC000E046E000E056E480EF0
:104E2600066E850E076E4DC000F04EC001F04FC0F5
:104E360002F050C003F0DDEC0CF0CD0E046ECC0E8B
:104E4600056ECC0E066E7B0E076E69EC03F0000E47
:104E5600046E000E056E480E066E860E076E59EC41
:104E660001F08BEC1FF000C03CF001C03DF0920E4B
:104E76000101056F000E066F980E076F540E086F3E
:104E8600000E096F000E046E000E056E7A0E066E99
:104E9600880E076E4DC000F04EC001F04FC002F004
:104EA60050C003F0C0EC07F000C00AF101C00BF1DE
:104EB60002C00CF103C00DF165EC1FF0010E056F89
:104EC600010E066F920E076F000E086F09DE576A15
:104ED600586A800E5818006E800E005C02E1070EBC
:104EE600575C0FE28CCF00F00036009000C08CFFBC
:104EF6003CC0FDF03DC0FEF0E0EC1EF0574A582ADB
:104F0600E8D7800E8C6E576A586A800E5818006E65
:104F1600800E005C02E1070E575C0FE28CCF00F0BA
:104F26000032009E00C08CFF3CC0FDF03DC0FEF08C
:104F3600E0EC1EF0574A582AE8D70101820E056FA9
:104F46000F0E066F010E076F010E086F010E096F37
:104F5600F5EC1FF0005202E000019189000191A9D1
:104F660012D0820E0101056F0F0E066F010E076F3C
:104F7600010E086F096BF5EC1FF0005204E0516A50
:104F8600526A000191990001FD6B5ADD94DD00C063
:104F960053F001C054F002C055F003C056F00CDCCB
:104FA60000C0FDF0CAEC23F053C004F054C005F075
:104FB60055C006F056C007F0000E006EC00E016E1A
:104FC6007D0E026E880E036E5DEC06F0010ED8B003
:104FD600000E006E005236E0A30E0101056F000EB2
:104FE600066F630E076F540E086F000E096F000EF2
:104FF600046E800E056E7F0E066E880E076E53C019
:1050060000F054C001F055C002F056C003F0C0ECE9
:1050160007F0000E046E000E056E480E066E850E35
:10502600076E69EC03F000C00AF101C00BF102C083
:105036000CF103C00DF151C00EF152C00FF165EC39
:105046001FF035D00101A30E056F000E066F500E3E
:10505600076F540E086F000E096F000E046E800E67
:10506600056E7F0E066E880E076E53C000F054C0A4
:1050760001F055C002F056C003F0C0EC07F0000E78
:10508600046E000E056E480E066E850E076E69EC00
:1050960003F000C00AF101C00BF102C00CF103C01D
:1050A6000DF151C00EF152C00FF165EC1FF0020E6A
:1050B600056F010E066FA30E076F000E086F10DD59
:1050C600000E046E800E056E7F0E066E880E076E4D
:1050D60053C000F054C001F055C002F056C003F0B2
:1050E600C0EC07F0000E046E000E056E480E066E4C
:1050F600850E076E69EC03F000C0E9F001C0EAF026
:1051060002C0EBF003C0ECF000C005F101C006F1EF
:1051160002C007F103C008F1B30E0101096F000ECA
:105126000A6F070E0B6FF5EC20F04DC005F14EC06F
:1051360006F14FC007F150C008F1DA0E0101096F00
:10514600000E0A6F070E0B6FF5EC20F0C20E010180
:10515600056F000E066FA80E076F540E086F000E3F
:10516600096FB30E0A6F000E0B6FDA0E0C6F000E8E
:105176000D6F51C00EF152C00FF165EC1FF000012A
:1051860091A182D0650E0101056F000E066F220EF9
:10519600076F000E086F3FEC1FF0000E011802E1CA
:1051A600000E001813E1C20E0101056F000E066F16
:1051B600B90E076F540E086F000E096F650E0A6F61
:1051C600000E0B6F65EC1FF000019195650E010155
:1051D600056F000E066F2C0E076F000E086F3FEC72
:1051E6001FF0000E011802E1000E001811E1C20EB8
:1051F6000101056F000E066FB60E076F540E086F9D
:10520600000E096F650E0A6F000E0B6F65EC1FF03E
:105216000101650E056F000E066F300E076F030E57
:10522600086F000E096F8FEC23F0576A586A800EDC
:105236005818006E800E005C02E1070E575C11E202
:10524600710E5724E16E000E5820E26E650E57244B
:10525600E96E000E5820EA6EEECFE6FF574A582A4E
:10526600E6D7710E0001FD6F000EFE6F82EC20F096
:1052760000C01BF001C01CF0000E011802E1000E78
:10528600001800E000019191C20EFD6F000EFE6F46
:10529600ADEC23F0820E0101056F0F0E066F010EB5
:1052A600076F010E086F010E096FF5EC1FF0005233
:1052B60002E000019189000191A912D0820E01013C
:1052C600056F0F0E066F010E076F010E086F096B53
:1052D600F5EC1FF0005204E0516A526A0001919900
:1052E6000001000E641902E1020E631918E1636BF6
:1052F600646B020E0101056F010E066FA30E076FA8
:10530600000E086F73EC25F0010E0101056F010E0A
:10531600066F920E076F000E086F73EC25F039D5F5
:02532600FFD7AF
:1054BC0010EE1BF0480E006E010E016E280EF66EFB
:0E54CC00530EF76E000EF86ECCEC24F01200BA
:02532800000083
:04532A004E614E0082
:01532E000F6F
:0A532F0023313B303030303B3000BA
:0A53390023303B303030303B3100B0
:04534300494E460089
:02534700300034
:02534900000062
:0F534B002020454D455247454E4359204F4E00B7
:04535A00000000004F
:02535E0000004D
:045360000000000049
:02536400000047
:07536600286E756C6C290034
:03536D004C4600AB
:105370000000007FCDCC4C7B0AD723786F120375D9
:1053800017B75171ACC5276EBD37066B95BF566711
:1053900077CC2B645F700961FFE65B5D08E53C3C00
:0453A0006042221B2A
:1053A4000000007F000020820000488500007A8809
:1053B40000401C8C0050438F0024749280961896F1
:1053C40020BC3E99286B6E9CF90215A0EC782DC187
:0453D400CAF249E2EE
:1053D800010000000800000040000000000200007A
:1053E8000010000000800000000004000000200001
:1053F800000000010000000800000040000000005C
:10540800010000000A00000064000000E80300003A
:1054180010270000A086010040420F0080969800E7
:0854280000E1F50500CA9A3B02
:10543000010000001000000000010000001000004A
:10544000000001000000100000000001000000103A
:1054500046696C6C3A252E316625257C25303464EE
:0354600020200009
:1054630046696C6C3A252E30662025257C25303420
:03547300642000B2
:1054760030313233343536373839616263646566C4
:015486000025
:105487003031323334353637383941424344454673
:015497000014
:10549800563A252E33666D2F737C436F756E7400F4
:0E54A8002325733B25733B253034644C4600AE
:0354B6002573005B
:0354B90025730058
:020000040030CA
:0D000100231F3CFFBF81FF0FC00FE00F4029
:00000001FF
