:040000004CEF27F0AA
:1000080000C016F001C015F0E1CF19F0E2CF1AF0E8
:10001800E9CF17F0EACF18F0F2A009D081AC02D0EE
:1000280000017F8981AE02D000017F87F290F2A49F
:1000380008D00001F294D80ED76EF00ED66EF24BAF
:10004800F32B9EAA10D000017F81A20E01014C6FF4
:10005800000E4D6F550E4E6F000E4F6F0B0E506F0A
:1000680024EC23F09E9A16C000F015C001F017C0CA
:10007800E9FF18C0EAFF19C0E1FF1AC0E2FF11004A
:0E008800026A016A006A086A036A000E12002A
:100096000B840BAE56EF00F0010E036E026A016A86
:0A00A600006A0A360232FF0E120053
:0800B0000AAE029E000E1200D0
:1000B8000B820BAE66EF00F0036802680168006807
:0800C8000A360232FF0E12009D
:1000D0000CB0AAEF00F00CA250EF01F00E6A000E77
:1000E0000264C1EF00F0F00E0214D8A48CEF00F00F
:1000F000023A01380F0B02260138F00B016E00386E
:100100000F0B01260038F00B006E08380F0B00268D
:100110000838F00B086E0E84D89002BEA5EF00F0F0
:1001200008360036013602360E2A02BEA5EF00F070
:1001300008360036013602360E2A02BEA5EF00F060
:1001400008360036013602360E2A0E50036446EF9A
:1001500001F0035E0BBC08AE4BEF01F0D880800EBF
:1001600008640030000E002201220222D8A04BEFCA
:1001700001F0023201320032034A50EF01F04BEF3E
:1001800001F001C002F000C001F008C000F0086AF0
:10019000000E0E860264F8EF00F0F00E0214D8A4F0
:1001A000E0EF00F0023A01380F0B02260138F00BA5
:1001B000016E00380F0B01260038F00B006E0E8424
:1001C000D89002BEA5EF00F00036013602360E2AA6
:1001D00002BEA5EF00F00036013602360E2A02BE3E
:1001E000A5EF00F00036013602360E2AA5EF00F02A
:1001F00001C002F000C001F0006A000E0E960E88E9
:10020000026425EF01F0F00E0214D8A410EF01F003
:10021000023A01380F0B02260138F00B016E0E84F2
:10022000D89002BEA5EF00F0013602360E2A02BEBB
:10023000A5EF00F0013602360E2A02BEA5EF00F04F
:10024000013602360E2AA5EF00F001C002F0016A65
:10025000000E0E86026455EF01F0F00E0214D8A4D1
:1002600034EF01F0023A0E84D89002BEA5EF00F000
:1002700002360E2A02BEA5EF00F002360E2A02BE9A
:10028000A5EF00F002360E2AA5EF00F0010E0C6E6D
:1002900002DF58EF01F0020E0C6E0ADF58EF01F09A
:1002A000040E0C6E09DF58EF01F0080E0C6EECDE48
:0202B00012003A
:0802B2000B6A0B86FF0E12001F
:0A02BA00210E0D6E0D2EFED712006E
:1002C400086A096A000E07620364E7EF01F002504E
:1002D40006180A6E075003267E0ED8A078EF01F0A8
:1002E400035ED8B0EBEF01F07CEF01F0035ED8A021
:1002F400EFEF01F0028E068E02C00EF001C00BF08B
:1003040000C00DF000500402F4CF0CF001500502BF
:10031400F4CF00F0F3CF08F00402F3500C26F450AD
:100324000822000E00220D500502F3500C26F45052
:100334000822000E002202500402F3500826F45052
:10034400002202500502016A000E0122F350002629
:10035400F45001220D500602F3500826F4500022F6
:10036400026A000E012202220B500602F3500026FC
:10037400F4500122000E02220E500602F350012610
:10038400F450022202BECFEF01F0083600360136E7
:1003940002360306D8B4EFEF01F0E2EF01F0D880A3
:1003A400800E08640030000E002201220222D8A030
:1003B400E2EF01F0023201320032034AEBEF01F0C6
:1003C4000AAE029E000EF1EF01F0010E5BDEF1EFCA
:1003D40001F0020E6FDEF1EF01F0040E5ADE12009E
:1003E4000134083609360450085E0550D8A0053C8F
:1003F400095E003601360F0E0C6E013408360936DC
:10040400045000A006D0085E0550D8A0053C095E43
:1004140005D008260550D8B0053C0926003601361B
:100424000C2EEBD700B006D0045008260550D8B0E7
:08043400053C0926000012003E
:10043C000D6A086A0050D8B4000C04180A6E0ABE83
:10044C000D1E0B6A04AE02D0041E042A00AE02D0AC
:10045C00001E002A005004100A6E0ABE1FD0045061
:10046C00085E003600340836045008260036060EA6
:10047C000C6E00340836045000B0085E00A008264C
:10048C0000360C2EF6D700A008260BB015D00DAEFA
:10049C00000C001E002A081E082A000C04AE09D00D
:1004AC0000BE04D00050086E006AF1D7006A002A22
:1004BC00000C001E0B2AD3D7082A0450085CD8A4C1
:0E04CC00E6D7086A002A00AEE2D7FF0C120045
:1004DA00025006180E6E086A096A0B6A035007640E
:1004EA0060EF03F006500A6E068E028E03500B6E02
:1004FA000750036E000E0B64B0EF02F00B50075E5C
:10050A00D8B451EF03F0070E07641FEF03F0075E3C
:10051A0000C008F001C000F002C001F0026A074EF4
:10052A0051EF03F00764F4EF02F0075E00C008F031
:10053A0001C000F0016A074E51EF03F00764D2EFE1
:10054A0002F0075E00C008F0006A074E51EF03F0A0
:10055A000764B9EF02F00AC002F005C001F004C056
:10056A0000F0086A7DEF04F0030E0764C4EF02F09E
:10057A00075E08380F0B086E074E51EF03F0D8904C
:10058A000832074E51EF03F0D8900832074E51EF68
:10059A0003F0D890083251EF03F0030E0764E3EF3B
:1005AA0002F0075E08380F0B086E0038F00B0826B9
:1005BA0000380F0B006E074E51EF03F0D89000324F
:1005CA000832074E51EF03F0D89000320832074E36
:1005DA0051EF03F0D8900032083251EF03F0030EC6
:1005EA0007640BEF03F0075E08380F0B086E00383C
:1005FA00F00B082600380F0B006E0138F00B0026AE
:10060A0001380F0B016E074E51EF03F0D8900132FB
:10061A0000320832074E51EF03F0D890013200320F
:10062A000832074E51EF03F0D890013200320832F7
:10063A0051EF03F0030E07643CEF03F0075E08383E
:10064A000F0B086E0038F00B082600380F0B006EEF
:10065A000138F00B002601380F0B016E0238F00B3F
:10066A00012602380F0B026E074E51EF03F0D890A5
:10067A000232013200320832074E51EF03F0D890AD
:10068A000232013200320832074E51EF03F0D8909D
:10069A000232013200320832096A000E0EAE45EF0C
:1006AA0004F0081E001E011E021E082A0022012252
:1006BA00022245EF04F00750D8A466EF03F07DEF5D
:1006CA0004F0096A02C00AF0028E068E0750035C23
:1006DA00076ED8B438EF04F0070E076406EF04F08B
:1006EA00075E0450096E0550046E0650056E066AD0
:1006FA00074E38EF04F0070E0764DBEF03F0075EDE
:10070A000450096E0550046E056A074E38EF04F06E
:10071A00070E0764B9EF03F0075E0450096E046A16
:10072A00074E38EF04F0070E0764A0EF03F00AC083
:10073A0002F07DEF04F0030E0764ABEF03F0075EEF
:10074A0009380F0B096E074E38EF04F0D8900932BA
:10075A00074E38EF04F0D8900932074E38EF04F00C
:10076A00D890093238EF04F0030E0764CAEF03F099
:10077A00075E09380F0B096E0438F00B0926043896
:10078A000F0B046E074E38EF04F0D890043209328A
:10079A00074E38EF04F0D89004320932074E38EF8A
:1007AA0004F0D8900432093238EF04F0030E0764DB
:1007BA00F2EF03F0075E09380F0B096E0438F00BED
:1007CA00092604380F0B046E0538F00B0426053889
:1007DA000F0B056E074E38EF04F0D890053204323D
:1007EA000932074E38EF04F0D89005320432093244
:1007FA00074E38EF04F0D89005320432093238EF48
:10080A0004F0030E076423EF04F0075E09380F0BA8
:10081A00096E0438F00B092604380F0B046E0538EC
:10082A00F00B042605380F0B056E0638F00B05266B
:10083A0006380F0B066E074E38EF04F0D8900632D2
:10084A00053204320932074E38EF04F0D8900632E6
:10085A00053204320932074E38EF04F0D8900632D6
:10086A00053204320932086A000E0EAE45EF04F072
:10087A00091E041E051E061E092A04220522062236
:10088A00095008260450002205500122065002226F
:10089A000EBE5CEF04F0D8A06BEF04F00232013216
:1008AA0000320832033E6BEF04F077EF04F0D8B061
:1008BA0071EF04F0000E081E001E011E021E082A17
:1008CA000022012202220A7E71EF04F0010E0C6E50
:1008DA0068EC00F07FEF04F0020E0C6E68EC00F09A
:1008EA007FEF04F0040E0C6E5CEC00F07FEF04F076
:0608FA00000E0C6E12005E
:10090000086A080E0C6E003408360450085ED8B031
:0E09100002D00826D89000360C2EF5D7120023
:10091E000B800BAE9BEF04F0026A0AAEFF0E026E66
:0C092E00016E006E0A360232FF0E12004D
:10093A000F0E0C6E470E0D6E0D2EFED70C2EFCD729
:06094A0000000000120095
:060950000000000012008F
:0C09560072B201D0FDD74BC173FF12003C
:0E096200ACB202D00000FCD74BC1ADFF1200BA
:100970000B6A0C6A0A6A086A0350D8B440EF05F0A3
:10098000028E9E0E035E03BECBEF04F0D8B4CBEF15
:1009900004F030EF05F0036C080E035CD8A0FDEF07
:1009A00004F0036E083600C008F001C000F002C079
:1009B00001F0026A080E035CD8A0FDEF04F0036E9C
:1009C000083600C008F001C000F0016A080E035CA0
:1009D000D8A0FDEF04F0036E083600C008F0006AEE
:1009E000080E035CD8A0FDEF04F0036E0836086A19
:1009F0000350D8A4D89009EF05F00350D8B409EFFC
:100A000005F0D8900232013200320832032E01EF95
:100A100005F00BBC08A01AEF05F0D8A01AEF05F0FE
:100A2000082AD8B4002AD8B4012AD8B4022A02BEAF
:100A300044EF05F00AAE40EF05F0021E011E001E55
:100A4000081E082AD8B4002AD8B4012AD8B4022A29
:100A500040EF05F0026A016A006A086A40EF05F09B
:100A60000B800BAE49EF05F0026A0AAE49EF05F0C4
:100A7000026E016E006E086E0A36023249EF05F012
:100A8000000E0C6A4AEF05F0010E0C6E48DF4AEFCB
:100A900005F0FF0E0250036E0150026E0050016E11
:060AA0000850006E120078
:100AA6000B6A0C6A086A0350D8B4D7EF05F002C087
:100AB6000AF0028E9E0E035E03AEC7EF05F0036CCE
:100AC600080E035CD8A094EF05F0036E083600C04C
:100AD60008F001C000F002C001F0026A080E035CD3
:100AE600D8A094EF05F0036E083600C008F001C0E8
:100AF60000F0016A080E035CD8A094EF05F0036EBF
:100B0600083600C008F0006A080E035CD8A094EF0F
:100B160005F0036E0836086A0350D8A4D890A0EFF3
:100B260005F00350D8B4A0EF05F0D8900232013298
:100B360000320832032E98EF05F00BBC08A0B1EF87
:100B460005F0D8A0B1EF05F0082AD8B4002AD8B429
:100B5600012AD8B4022A02BEDBEF05F00AAED7EFAF
:100B660005F0021E011E001E081E082AD8B4002A1F
:100B7600D8B4012AD8B4022AD7EF05F0026A016A6E
:100B8600006A086AD7EF05F00B800BAEE1EF05F0BF
:100B9600026A0AAEE1EF05F0026E016E006E086EA3
:100BA6000A360232E1EF05F00C6A000EE2EF05F0BC
:100BB600010E0C6E000EB0DEE2EF05F0FF0E0250E5
:100BC600036E0150026E0050016E0850006E120056
:100BD600C7B409D01F0EC514016E0150000A03E107
:0A0BE600010E006E01D0006A12003B
:100BF0000B6A0A6A096A00500402F4CF09F0F3CFC5
:100C000008F001500502F4CF0BF0F3CF0AF00050CA
:100C10000502F3500926F4500A22E86A0B2201501B
:100C20000402F3500926F4500A22E86A0B2208C095
:100C300000F009C001F00AC002F00BC003F012007E
:060C4000067E4BDC1200F1
:100C46000050086E0150006E0250016E0350026E95
:100C5600036A0B6A0C6A9E0E036E0A6A020E0C6E1B
:060C660068EC00F0120032
:100C6C0001014651390806E3300E465D03E3010EDF
:080C7C00006E01D0006A1200B5
:100C8400010146BF02D0819601D0818646BD02D0C3
:100C9400819401D0818446BB02D0819201D08182AB
:100CA40046B902D0819001D0818000017FBB02D07F
:100CB400818801D08198818A49DE819A010146B7F1
:100CC40002D0819601D0818646B502D0819401D0AC
:100CD400818446B302D0819201D0818246B102D090
:100CE400819001D0818000017FBB02D0818801D036
:100CF4008198818A2BDE819A7FAB02D01CDE02D0E0
:060D04005DEC01F012009D
:100D0A000450000A08E10550000A05E1FF0E006ED2
:100D1A007F0E016E58D00D6A096A086A01500010E8
:100D2A00D8B4000C015005180A6E0ABE0D1E0B6AD3
:100D3A0005AE05D0041E051E042AD8B4052A01AE44
:100D4A0005D0001E011E002AD8B4012A0150051040
:100D5A000A6E0ABE10D0F2EC01F00BB020D00DAE34
:100D6A00000C001E011E002AD8B4012A081E091E02
:100D7A00082AD8B4092A000C05AE0DD001BE07D046
:100D8A000150096E0050086E016A006AE8D7016ACC
:100D9A00006A002A000C011E001E0B2ADDD7082A51
:100DAA00D8B4092A0450085CD8A4D9D70550095CDC
:100DBA00D8A4D5D7096A086A002AD8B4012A01AE8C
:080DCA00CED70000FF0C12005F
:100DD2000B6A0A6A096A086A0E6A03340836045002
:100DE200085E0550D8A0053C095E0650D8A0063C16
:100DF2000A5E0750D8A0073C0B5EE86AD8A0010E35
:100E02000E5E0336070E0C6E0334083609360A36B8
:100E12000B360E36045003A012D0085E0550D8A03F
:100E2200053C095E0650D8A0063C0A5E0750D8A0D1
:100E3200073C0B5EE86AD8A0010E0E5E11D00826B0
:100E42000550D8B0053C09260650D8B0063C0A2603
:100E52000750D8B0073C0B26E86AD8B0010E0E2620
:100E620003360C2ED1D70234083609360A360B3631
:100E72000E36045003A012D0085E0550D8A0053CDF
:100E8200095E0650D8A0063C0A5E0750D8A0073C6F
:100E92000B5EE86AD8A0010E0E5E11D0082605503E
:100EA200D8B0053C09260650D8B0063C0A260750A1
:100EB200D8B0073C0B26E86AD8B0010E0E260236DF
:100EC200070E0C6E0234083609360A360B360E3619
:100ED200045002A012D0085E0550D8A0053C095E5D
:100EE2000650D8A0063C0A5E0750D8A0073C0B5E0D
:100EF200E86AD8A0010E0E5E11D008260550D8B0BF
:100F0200053C09260650D8B0063C0A260750D8B040
:100F1200073C0B26E86AD8B0010E0E2602360C2ECC
:100F2200D1D70134083609360A360B360E3604504C
:100F320002A012D0085E0550D8A0053C095E0650FA
:100F4200D8A0063C0A5E0750D8A0073C0B5EE86AB0
:100F5200D8A0010E0E5E11D008260550D8B0053C6F
:100F620009260650D8B0063C0A260750D8B0073CDE
:100F72000B26E86AD8B0010E0E260136070E0C6E5B
:100F82000134083609360A360B360E36045001A0F3
:100F920012D0085E0550D8A0053C095E0650D8A0C4
:100FA200063C0A5E0750D8A0073C0B5EE86AD8A050
:100FB200010E0E5E11D008260550D8B0053C092658
:100FC2000650D8B0063C0A260750D8B0073C0B267C
:100FD200E86AD8B0010E0E2601360C2ED1D70034A5
:100FE200083609360A360B360E36045001A012D0E6
:100FF200085E0550D8A0053C095E0650D8A0063C04
:101002000A5E0750D8A0073C0B5EE86AD8A0010E22
:101012000E5E11D008260550D8B0053C09260650B0
:10102200D8B0063C0A260750D8B0073C0B26E86A1F
:10103200D8B0010E0E260036070E0C6E00340836AC
:1010420009360A360B360E36045000A012D0085E5E
:101052000550D8A0053C095E0650D8A0063C0A5EA1
:101062000750D8A0073C0B5EE86AD8A0010E0E5EBE
:1010720011D008260550D8B0053C09260650D8B034
:10108200063C0A260750D8B0073C0B26E86AD8B0BF
:10109200010E0E2600360C2ED1D700B00ED0045011
:1010A20008260550D8B0053C09260650D8B0063CA3
:0C10B2000A260750D8B0073C0B2612009D
:1010BE00800E01014619006E800E000A005CD8B049
:1010CE006DD146510008016E01C046F1800E011827
:1010DE00006E800E6E0A005CD8A0C0D0640E046E46
:1010EE0046C100F01EEC02F0120E0024056E000E3A
:1010FE0000BEFF0E066E000E062205C000F006C0F2
:10110E0001F0000E06BEFF0E026E036E003600905A
:10111E0001360236033600360090013602360336AB
:10112E00100E0024F66E550E0120F76E000E0220F2
:10113E00F86E0900F5CF47F10900F5CF48F1090027
:10114E00F5CF49F10900F5CF4AF1640E046E46C1A0
:10115E0000F01EEC02F008C000F00A0E046E1EEC49
:10116E0002F0090E0024056E000E00BEFF0E066E84
:10117E00000E062205C000F006C001F0000E06BEED
:10118E00FF0E026E036E00360090013602360336F5
:10119E0000360090013602360336100E0024F66E2D
:1011AE00550E0120F76E000E0220F86E0900F5CFE5
:1011BE0000F00900F5CF01F00900F5CF02F00900AB
:1011CE00F5CF03F047C104F048C105F049C106F060
:1011DE004AC107F062EC01F000C047F101C048F1CE
:1011EE0002C049F103C04AF10A0E046E46C100F076
:1011FE001EEC02F008C000F000C001F0000E00BEB0
:10120E00FF0E026E036E046E013601900236033637
:10121E00043601360190023603360436100E0124D0
:10122E00F66E550E0220F76E000E0320F86E0900C2
:10123E00F5CF00F00900F5CF01F00900F5CF02F06F
:10124E000900F5CF03F047C104F048C105F049C1CC
:10125E0006F04AC107F062EC01F007D2800E0A0ACE
:10126E00006E800E4619005C71E20A0E046E46C1D5
:10127E0000F01EEC02F0090E0024056E000E00BEFA
:10128E00FF0E066E000E062205C000F006C001F02D
:10129E00000E06BEFF0E026E036E00360090013683
:1012AE000236033600360090013602360336100E33
:1012BE000024F66E550E0120F76E000E0220F86E19
:1012CE000900F5CF47F10900F5CF48F10900F5CF38
:1012DE0049F10900F5CF4AF10A0E046E46C100F03D
:1012EE001EEC02F008C000F000C001F0000E00BEBF
:1012FE00FF0E026E036E046E013601900236033647
:10130E00043601360190023603360436100E0124DF
:10131E00F66E550E0220F76E000E0320F86E0900D1
:10132E00F5CF00F00900F5CF01F00900F5CF02F07E
:10133E000900F5CF03F047C104F048C105F049C1DB
:10134E0006F04AC107F062EC01F08FD146C100F001
:10135E00000E46BFFF0E016E026E036E0036009049
:10136E000136023603360036009001360236033659
:10137E00100E0024F66E550E0120F76E000E0220A0
:10138E00F86E0900F5CF00F00900F5CF01F0090065
:10139E00F5CF02F00900F5CF03F067D1800E4619A4
:1013AE00006E800E6E0A005CD8A0C0D0640E046E73
:1013BE0046C100F01EEC02F0120E0024056E000E67
:1013CE0000BEFF0E066E000E062205C000F006C01F
:1013DE0001F0000E06BEFF0E026E036E0036009088
:1013EE0001360236033600360090013602360336D9
:1013FE00440E0024F66E550E0120F76E000E0220EC
:10140E00F86E0900F5CF47F10900F5CF48F1090054
:10141E00F5CF49F10900F5CF4AF1640E046E46C1CD
:10142E0000F01EEC02F008C000F00A0E046E1EEC76
:10143E0002F0090E0024056E000E00BEFF0E066EB1
:10144E00000E062205C000F006C001F0000E06BE1A
:10145E00FF0E026E036E0036009001360236033622
:10146E0000360090013602360336440E0024F66E26
:10147E00550E0120F76E000E0220F86E0900F5CF12
:10148E0000F00900F5CF01F00900F5CF02F00900D8
:10149E00F5CF03F047C104F048C105F049C106F08D
:1014AE004AC107F062EC01F000C047F101C048F1FB
:1014BE0002C049F103C04AF10A0E046E46C100F0A3
:1014CE001EEC02F008C000F000C001F0000E00BEDD
:1014DE00FF0E026E036E046E013601900236033665
:1014EE00043601360190023603360436440E0124CA
:1014FE00F66E550E0220F76E000E0320F86E0900F0
:10150E00F5CF00F00900F5CF01F00900F5CF02F09C
:10151E000900F5CF03F047C104F048C105F049C1F9
:10152E0006F04AC107F062EC01F09FD0800E0A0A65
:10153E00006E800E4619005C71E20A0E046E46C102
:10154E0000F01EEC02F0090E0024056E000E00BE27
:10155E00FF0E066E000E062205C000F006C001F05A
:10156E00000E06BEFF0E026E036E003600900136B0
:10157E000236033600360090013602360336440E2C
:10158E000024F66E550E0120F76E000E0220F86E46
:10159E000900F5CF47F10900F5CF48F10900F5CF65
:1015AE0049F10900F5CF4AF10A0E046E46C100F06A
:1015BE001EEC02F008C000F000C001F0000E00BEEC
:1015CE00FF0E026E036E046E013601900236033674
:1015DE00043601360190023603360436440E0124D9
:1015EE00F66E550E0220F76E000E0320F86E0900FF
:1015FE00F5CF00F00900F5CF01F00900F5CF02F0AC
:10160E000900F5CF03F047C104F048C105F049C108
:10161E0006F04AC107F062EC01F027D046C100F097
:10162E00000E46BFFF0E016E026E036E0036009076
:10163E000136023603360036009001360236033686
:10164E00440E0024F66E550E0120F76E000E022099
:10165E00F86E0900F5CF00F00900F5CF01F0090092
:0C166E00F5CF02F00900F5CF03F01200E8
:10167A0003500718D8A451EF0BF002500618D8A44B
:10168A0051EF0BF001500518D8A451EF0BF00050A0
:0E169A000418D8B4D8841200D894120012009C
:1016A8000A6A0350D8A40A800750D8A40A820A50AC
:1016B800D8B4B7EF0BF0030AD8B470EF0BF00AB048
:1016C8006BEF0BF006AEB5EF0BF0B3EF0BF002AE1D
:1016D800B3EF0BF0B5EF0BF00250800B0A6E029ED1
:1016E8000650800B069E0A18D8B481EF0BF00A50FA
:1016F800D8B4B3EF0BF0B5EF0BF00750035CD8B4D8
:101708008BEF0BF0D8A0A7EF0BF0ADEF0BF0065066
:10171800025CD8B495EF0BF0D8A0A7EF0BF0ADEFB3
:101728000BF00550015CD8B49FEF0BF0D8A0A7EFE1
:101738000BF0ADEF0BF00450005CD8B4B7EF0BF032
:10174800D8B0ADEF0BF00A52D8B4B5EF0BF0B3EF49
:101758000BF00A52D8B4B3EF0BF0B5EF0BF0D8800A
:0E1768001200D8901200D880D884120012000F
:10177600F250026EF29E0500FF6A0150FE6E0050A6
:08178600FD6E02BEF28E12009E
:10178E000450000A12E10550000A0FE10650000A4B
:10179E000CE10750000A09E1FF0E006EFF0E016E0C
:1017AE007F0E026EFF0E036EA8D0086A096A0750FC
:1017BE00D8B472EF0CF00350D8B477EF0CF002509F
:1017CE0006180A6E028E068E0E6A02C008F001C05E
:1017DE000CF000C00DF004500D5E0550D8A0053C75
:1017EE000C5E0650D8A0063C085E086A0C6A0D6AAC
:1017FE00D8A009EF0CF0D890023201320032083234
:10180E00010E0E6E0750035ED8A016EF0CF07E0E82
:10181E000E240326D8B07CEF0CF01CEF0CF07E0EDD
:10182E000E240326D8A081EF0CF0180E0B6E0D3689
:10183E000C3608360036013602360E360450005E7F
:10184E000550D8A0053C015E0650D8A0063C025EAD
:10185E0006340E120EA037EF0CF00D8042EF0CF096
:10186E00045000260550D8B0053C01260650D8B0CD
:10187E00062802260D900B2E1EEF0CF068EF0CF0D2
:10188E00D8900036013602360E360450005E0550F2
:10189E00D8A0053C015E0650D8A0063C025E063478
:1018AE000E10010B0D26D8B00C2AD8B4082AD8A4D5
:1018BE0068EF0CF008320C320D32032AD8B47CEFEC
:1018CE000CF00AAE089E0850026E0C50016E0D50C0
:1018DE00006E84EF0CF0010E59EC01F084EF0CF069
:1018EE00020E44EC00F084EF0CF0040E5CEC00F001
:0C18FE0084EF0CF0080E4BEC00F0120020
:10190A006E0E0101465DD8A0CAD0640E046E46C1AF
:10191A0000F080EC04F0120E0024056E066A000E38
:10192A00062205C000F006C001F0000E06BEFF0E3A
:10193A00026E036E00360090013602360336003618
:10194A000090013602360336100E0024F66E550E4C
:10195A000120F76E000E0220F86E0900F5CF00F0A4
:10196A000900F5CF01F00900F5CF02F00900F5CF23
:10197A0003F0000E046E000E056E000E066E7E0E5B
:10198A00076E62EC01F000C047F101C048F102C0E5
:10199A0049F103C04AF1640E046E46C100F080ECBE
:1019AA0004F008C000F00A0E046E80EC04F0090E80
:1019BA000024056E066A000E062205C000F006C065
:1019CA0001F0000E06BEFF0E026E036E0036009096
:1019DA0001360236033600360090013602360336E7
:1019EA00100E0024F66E550E0120F76E000E02202E
:1019FA00F86E0900F5CF00F00900F5CF01F00900F3
:101A0A00F5CF02F00900F5CF03F047C104F048C151
:101A1A0005F049C106F04AC107F062EC01F000C0C6
:101A2A0047F101C048F102C049F103C04AF10A0E68
:101A3A00046E46C100F080EC04F008C000F000C05B
:101A4A0001F0000E026E036E046E0136019002363A
:101A5A000336043601360190023603360436100E78
:101A6A000124F66E550E0220F76E000E0320F86E62
:101A7A000900F5CF00F00900F5CF01F00900F5CF14
:101A8A0002F00900F5CF03F047C104F048C105F0A0
:101A9A0049C106F04AC107F062EC01F0B1D04651E3
:101AAA000A08D8B07ED00A0E046E46C100F080EC57
:101ABA0004F0090E0024056E066A000E062205C00F
:101ACA0000F006C001F0000E06BEFF0E026E036EA5
:101ADA000036009001360236033600360090013691
:101AEA0002360336100E0024F66E550E0120F76EEC
:101AFA00000E0220F86E0900F5CF00F00900F5CFBC
:101B0A0001F00900F5CF02F00900F5CF03F0000E4D
:101B1A00046E000E056E000E066E7E0E076E62ECF7
:101B2A0001F000C047F101C048F102C049F103C009
:101B3A004AF10A0E046E46C100F080EC04F008C0B7
:101B4A0000F000C001F0000E026E036E046E013652
:101B5A000190023603360436013601900236033606
:101B6A000436100E0124F66E550E0220F76E000E92
:101B7A000320F86E0900F5CF00F00900F5CF01F057
:101B8A000900F5CF02F00900F5CF03F047C104F0D0
:101B9A0048C105F049C106F04AC107F062EC01F0FC
:101BAA002FD046C100F0000E016E026E036E0036A1
:101BBA0000900136023603360036009001360236AE
:101BCA000336100E0024F66E550E0120F76E000E35
:101BDA000220F86E0900F5CF00F00900F5CF01F0F8
:101BEA000900F5CF02F00900F5CF03F0000E046EEC
:101BFA00000E056E000E066E7E0E076E62EC01F098
:021C0A001200C6
:101C0C00020E0C6E490E0D6E0D2EFED70C2EFCD74F
:061C1C00000000001200B0
:041C2200C584120063
:101C26009E961EC1C9FF58C01FF159C020F15AC067
:101C360021F15BC022F1C7A421D0585059105A1087
:101C46005B101BE001011F512011211122110EE131
:101C5600E0C0E1FFE1C0E2FF040EE66EDEC000F088
:101C6600DFC001F085DD010E006E3AD0010E0101E4
:101C76001F5F000E205B215B225BDDD758C01FF182
:101C860059C020F15AC021F15BC022F19EB621D085
:101C9600585059105A105B101BE001011F512011BA
:101CA600211122110EE1E0C0E1FFE1C0E2FF040EC6
:101CB600E66EDEC000F0DFC001F05ADD010E006EF8
:101CC6000FD0010E01011F5F000E205B215B225B1E
:101CD600DDD7C5BC02D0006A03D0C584020E006EF3
:021CE6001200EA
:101CE8000C6A0E6A0250D8A48DEF0EF001C002F003
:101CF80000C001F0006A0E860250D8A48DEF0EF0E5
:101D080001C002F0016A0E960E880250D8B49FEF07
:101D18000EF00E50035ED8A4D8A0A5EF0EF0D89010
:101D280002BEABEF0EF0003601360236032E94EFFA
:101D38000EF0A5EF0EF0010E0C6E44EC00F0AFEFC4
:101D48000EF0020E0C6E4BEC00F0AFEF0EF0040E2E
:081D58000C6E58EC00F01200C3
:0A1D6000000E9EBA010E006E120084
:101D6A00AECF01F0ABA202D0AB98AB8801C000F0B5
:021D7A00120055
:101D7C0001011E071E071EC101F01E0701500008BD
:101D8C0003E200000000F7D7000000000000000094
:041D9C000000120031
:0C1DA0000E0E0D6E0D2EFED7000012007E
:101DAC00086A096A100E0C6E0134083609360450A4
:101DBC00085E0550D8A0053C095ED8B007D0045089
:101DCC0008260550D8B0053C0926D89000360136B7
:061DDC000C2EEAD71200F4
:101DE20058C020F159C021F15AC022F15BC023F141
:101DF20001011E6B1F6B1F51120802E11E518E085A
:101E020009E3EBEC05F0005201E004D001011E4BA6
:101E12001F2BF1D70101120E1F5D02E18F0E1E5D15
:101E220003E37B0E006E24D0C580C5A020D058509D
:101E320059105A105B101AE020512111221123115E
:101E42000EE1E0C0E1FFE1C0E2FF050EE66EDEC09A
:101E520000F0DFC001F08EDC010E006E09D0010E31
:101E62000101205F000E215B225B235BDED7006A4B
:021E720012005C
:101E740000017F9B1EC146F142EC06F07F8B1200ED
:101E8400400E006E1F0E016E000E026E036E1200F5
:101E94001EC104F01FC105F004C002F005C003F028
:101EA400044A052A20C100F021C101F00101204BA0
:101EB400212B00C0E9FF01C0EAFF02C0E1FF03C01B
:101EC400E2FFEECFE6FF02C0E9FF03C0EAFFEE52F5
:0E1ED40001E0E2D71EC100F01FC101F01200B4
:101EE20001013E6B3F6B326B336B20C100F021C1AD
:101EF20001F022C102F0010E2027000E212322232D
:101F020000C0F6FF01C0F7FF02C0F8FF0900F5CFDD
:101F120000F000C02FF10052D8B47FEF1FF02F5114
:101F2200250A0BE01EC1E1FF1FC1E2FF2FC1E6FF40
:101F32001E4B1F2B3E4B3F2BD8D7306B316B326B76
:101F4200336B23D03287010E2027000E2123222358
:101F520059D03281010E2027000E2123222352D094
:101F62003283010E2027000E212322234BD03387F8
:101F7200010E2027000E2123222344D03285010E98
:101F82002027000E212322233DD020C1F6FF21C1AC
:101F9200F7FF22C1F8FF0900F5CF01F001502D0A29
:101FA200D1E020C1F6FF21C1F7FF22C1F8FF0900ED
:101FB200F5CF01F00150200ACCE020C1F6FF21C18B
:101FC200F7FF22C1F8FF0900F5CF01F001502B0AFB
:101FD200C7E020C1F6FF21C1F7FF22C1F8FF0900C7
:101FE200F5CF01F00150230AC2E020C1F6FF21C162
:101FF200F7FF22C1F8FF0900F5CF01F00150300AC6
:10200200BDE001D09ED732A301D0329132A701D0D8
:10201200329520C1F6FF21C1F7FF22C1F8FF090066
:10202200F5CF00F0000E016E00C046F136EC06F06E
:10203200005236E0306B316B30C100F031C101F03B
:102042000A0E046E000E056EF8EC05F020C1F6FFD4
:1020520021C1F7FF22C1F8FF0900F5CF02F00250BB
:102062000024306F000E0120316F300E305F000E01
:10207200315B010E2027000E2123222320C1F6FF0F
:1020820021C1F7FF22C1F8FF0900F5CF00F0000ED1
:10209200016E00C046F136EC06F00052CDE133D0BD
:1020A20020C1F6FF21C1F7FF22C1F8FF0900F5CFD9
:1020B20001F001502A0A27E123C1E9FF24C1EAFF06
:1020C200EECF00F0EECF01F000C0E9FF01C0EAFF61
:1020D200EECF30F1EECF31F123C1E9FF24C1EAFFA7
:1020E200020EEE24006E000EEE20016E23C1E1FF0F
:1020F20024C1E2FF00C0E6FF01C0E6FF010E202777
:10210200000E2123222320C1F6FF21C1F7FF22C1A5
:10211200F8FF0900F5CF01F001502E0A70E1010E1F
:102122002027000E2123222320C1F6FF21C1F7FF21
:1021320022C1F8FF0900F5CF01F001502A0A28E177
:1021420023C1E9FF24C1EAFFEECF00F0EECF01F098
:1021520000C0E9FF01C0EAFFEECF2DF1EECF2EF174
:1021620023C1E9FF24C1EAFF020EEE24006E000E35
:10217200EE20016E23C1E1FF24C1E2FF00C0E6FFB1
:1021820001C0E6FF010E2027000E2123222336D0B4
:102192002D6B2E6B20C1F6FF21C1F7FF22C1F8FF84
:1021A2000900F5CF00F0000E016E00C046F136ECDA
:1021B20006F0005223E02DC100F02EC101F00A0EFC
:1021C200046E000E056EF8EC05F020C1F6FF21C189
:1021D200F7FF22C1F8FF0900F5CF02F002500024F8
:1021E2002D6F000E01202E6F300E2D5F000E2E5B24
:1021F200010E2027000E21232223CCD703D02D6BE2
:102202002E6B338920C100F021C101F022C102F0FE
:10221200010E2027000E2123222300C0F6FF01C059
:10222200F7FF02C0F8FF0900F5CF2FF1F9D03EC148
:1022320000F03FC101F083EF1FF03289E3D733850D
:102242002ED1328B33812BD1338329D1328D27D1B9
:1022520026D1328B328F23D123C1E9FF24C1EAFF79
:10226200EECF00F0EECF01F000C0E9FF01C0EAFFBF
:10227200EECF3AF1EECF3BF123C1E9FF24C1EAFFF1
:10228200020EEE24006E000EEE20016E23C1E1FF6D
:1022920024C1E2FF00C0E6FF01C0E6FF000E3B19C9
:1022A20002E1000E3A1904E14E0E3A6F000E3B6F46
:1022B2003C6B3D6B3C513A25E96E3D513B21EA6E48
:1022C200EE520BE0010E3C25006E000E3D21016E28
:1022D20000C03CF101C03DF1EDD72D512E110AE0B5
:1022E2003D512E5D02E13C512D5D04E22DC13CF1D8
:1022F2002EC13DF131513D5D02E130513C5D05E2BF
:102302003C51305F3D51315B02D0306B316B32B7A3
:1023120016D030C100F031C101F0010E305F000E65
:10232200315B005001100BE01EC1E1FF1FC1E2FF53
:10233200200EE66E1E4B1F2B3E4B3F2BEAD73CC1B5
:1023420002F03DC103F0010E3C5D006E000E3D59EE
:10235200016E00C03CF101C03DF10250031019E0D2
:102362003AC1E9FF3BC1EAFF1EC1E1FF1FC1E2FF23
:10237200EECFE6FF1E4B1F2B010E3A25006E000E1C
:102382003B21016E00C03AF101C03BF13E4B3F2BB5
:10239200D6D732A716D030C100F031C101F0010EFC
:1023A200305F000E315B005001100BE01EC1E1FFF7
:1023B2001FC1E2FF200EE66E1E4B1F2B3E4B3F2B32
:1023C200EAD793D523C1E9FF24C1EAFFEECF00F09B
:1023D200EECF01F000C0E9FF01C0EAFFEECF2FF11E
:1023E20023C1E9FF24C1EAFF020EEE24006E000EB3
:1023F200EE20016E23C1E1FF24C1E2FF00C0E6FF2F
:1024020001C0E6FF2F0E3A6F010E3B6F010E3C6FCB
:10241200000E3D6F62D7C00E3213000E33133FD051
:102422002F51000AD8B403D72F516C0AD8B405D75C
:102432002F514C0AD8B401D72F51660AD8B4FFD60F
:102442002F51450AD8B4FDD62F51650AD8B4FAD611
:102452002F51670AD8B4F8D62F516F0AD8B4F6D6DE
:102462002F51640AD8B4F4D62F51690AD8B4F0D6E1
:102472002F51700AD8B4EDD62F51580AD8B4E9D6E4
:102482002F51780AD8B4E6D62F51730AD8B4E4D6BD
:102492002F51630A97E02F51750ABDE0B3D7000EA2
:1024A2003215006E3351070B016E00500110D8B483
:1024B20026EF1BF033A904D0060E2D6F000E2E6FEF
:1024C20023C1E9FF24C1EAFFEECF00F0EECF01F015
:1024D20000C0E9FF01C0EAFFEECF34F1EECF35F1E3
:1024E200EECF36F1EECF37F123C1E9FF24C1EAFF87
:1024F200040EEE24006E000EEE20016E23C1E1FFF9
:1025020024C1E2FF00C0E6FF01C0E6FF046A056ADB
:10251200066A076A34C100F035C101F036C102F023
:1025220037C103F054EC0BF0010ED8B0000E006E70
:10253200005205E0367F030E3213000E3313386B60
:10254200396B34C100F035C101F036C102F037C138
:1025520003F0046A056A066A076A3DEC0BF0000E96
:10256200D8A4010E006E0052D8B48AD037C100F050
:10257200016A026A036AFF0E0016000E01167E0E41
:10258200005E000E015A00C038F101C039F1010E9F
:10259200005E000E015A00C038F101C039F1030E8D
:1025A200046E000E056EF8EC05F000C038F101C0B3
:1025B20039F10A0E046E000E056E85EC06F000C0BD
:1025C20038F101C039F1800E0118026E800E025CF2
:1025D20002E1000E005C05E2010E0101385F000E0F
:1025E200395B010138510008466F5FEC08F034C1D5
:1025F20004F035C105F036C106F037C107F062ECD0
:1026020001F000C03AF101C03BF102C03CF103C04D
:102612003DF1000E046E000E056E000E066E7F0E7A
:10262200076E3AC100F03BC101F03CC102F03DC16E
:1026320003F054EC0BF0010ED8B0000E006E005205
:1026420005E0010E385F000E395B1AD0000E046EF1
:10265200000E056E200E066E820E076E3AC100F065
:102662003BC101F03CC102F03DC103F054EC0BF060
:10267200000ED8B0010E006E005202E0384B392B2A
:10268200800E006E800E3919005C02E1385100089C
:1026920003E3010E2F6F02D038C12FF133B118D0EE
:1026A20033A315D0800E3919006E7F0E005C02E153
:1026B200FC0E385D0BE3800E3919006E800E2E1968
:1026C200005C02E12D51385D01E201D001D0EFD36F
:1026D2002D512E1106E033A304D0010E2D5F000E02
:1026E2002E5B2E51000802E12D51080803E2080E6C
:1026F2002F6F02D02DC12FF134C100F035C101F08E
:1027020036C102F037C103F0046A056A066A076A35
:102712003DEC0BF0000ED8A4010E006E0052D8B4AE
:102722004BD138C146F15FEC08F000C004F001C0A3
:1027320005F002C006F003C007F034C100F035C155
:1027420001F036C102F037C103F0C7EC0BF000C054
:1027520034F101C035F102C036F103C037F1010195
:102762002F510008466F5FEC08F000C004F001C072
:1027720005F002C006F003C007F034C100F035C115
:1027820001F036C102F037C103F0C7EC0BF000C014
:1027920040F101C041F102C042F103C043F140C126
:1027A20034F141C135F142C136F143C137F140C183
:1027B20000F041C101F042C102F043C103F0B8ECA4
:1027C20004F023EC06F000C004F001C005F002C0E2
:1027D20006F003C007F040C100F041C101F042C160
:1027E20002F043C103F020EC06F0000E046E000E6E
:1027F200056E000E066E7E0E076E54EC0BF0000E98
:10280200D8B0010E006E00521AE034C100F035C19A
:1028120001F036C102F037C103F0000E046E000E63
:10282200056E000E066E7E0E076E6DEC02F000C0A5
:1028320034F101C035F102C036F103C037F134C1C1
:1028420000F035C101F036C102F037C103F0B8EC37
:1028520004F001012F51010F096E0A6A000E0A22CB
:1028620009C004F00AC005F0000E0ABEFF0E066E93
:10287200076E043604900536063607360436049091
:10288200053606360736A80E0424F66E550E0520C8
:10289200F76E000E0620F86E0900F5CF05F009006C
:1028A200F5CF06F00900F5CF07F00900F5CF08F0E3
:1028B2000850035C08E10750025C05E10650015C28
:1028C20002E10550005C1EE3010134C100F035C194
:1028D20001F036C102F037C103F0CD0E046ECC0E0A
:1028E200056E4C0E066E7B0E076E62EC01F000C0A8
:1028F20034F101C035F102C036F103C037F1384B73
:10290200392B5AD034C100F035C101F036C102F082
:1029120037C103F0B8EC04F02FC104F0000E056ECD
:10292200066E076E04360490053606360736043600
:102932000490053606360736A80E0424F66E550EA8
:102942000520F76E000E0620F86E0900F5CF05F09F
:102952000900F5CF06F00900F5CF07F00900F5CF21
:1029620008F00850035C08E10750025C05E10650DC
:10297200015C02E10550005C1FE2010134C100F07C
:1029820035C101F036C102F037C103F0000E046E0A
:10299200000E056E200E066E820E076E62EC01F0CE
:1029A20000C034F101C035F102C036F103C037F185
:1029B200010E385F000E395B010133A393D033B7A8
:1029C20091D0800E000A006E800E2E19005C02E18A
:1029D2002D510A0804E20A0E2D6F000E2E6F34C12B
:1029E20000F035C101F036C102F037C103F0B8EC96
:1029F20004F000C03AF101C03BF102C03CF103C057
:102A02003DF13A513B113C113D1142E00A0E046E78
:102A1200000E056E066E076E3AC100F03BC101F072
:102A22003CC102F03DC103F0E9EC06F008C000F041
:102A320009C001F00AC002F00BC003F0000E046EE0
:102A4200031808E10450021805E10450011802E1DC
:102A52000050000A1DE1010E2D5F000E2E5B0A0ED2
:102A6200046E000E056E066E076E3AC100F03BC1A1
:102A720001F03CC102F03DC103F0E9EC06F000C0F8
:102A82003AF101C03BF102C03CF103C03DF1B9D7BC
:102A9200800E2E19006E800E005C02E12F512D5D1A
:102AA20021E22D512F5D466F5FEC08F000C004F06B
:102AB20001C005F002C006F003C007F034C100F007
:102AC20035C101F036C102F037C103F0C7EC0BF09B
:102AD20000C034F101C035F102C036F103C037F154
:102AE2002DC12FF1050E01012D25006E000E2E21A4
:102AF200016E0050305F0150315B2D512E1103E108
:102B020033B701D004D0010E305F000E315B030EEB
:102B12003215006E33C101F0000E01160050011093
:102B220004E0010E305F000E315B32A539D032A3D2
:102B320012D032A103D02D0E256F02D02B0E256F9D
:102B42001EC1E1FF1FC1E2FF25C1E6FF1E4B1F2B85
:102B52003E4B3F2B0CD032A10AD01EC1E1FF1FC158
:102B6200E2FF200EE66E1E4B1F2B3E4B3F2B800ECC
:102B7200006E800E3119005C02E1305100080FE254
:102B82001EC1E1FF1FC1E2FF300EE66E1E4B1F2B7E
:102B92003E4B3F2B010E305F000E315BE8D73AD03F
:102BA20032B718D0800E006E800E3119005C02E13F
:102BB200305100080FE21EC1E1FF1FC1E2FF200EEB
:102BC200E66E1E4B1F2B3E4B3F2B010E305F000E5D
:102BD200315BE8D732A312D032A103D02D0E266F7B
:102BE20002D02B0E266F1EC1E1FF1FC1E2FF26C1DC
:102BF200E6FF1E4B1F2B3E4B3F2B0CD032A10AD0BF
:102C02001EC1E1FF1FC1E2FF200EE66E1E4B1F2B0D
:102C12003E4B3F2B34C100F035C101F036C102F00A
:102C220037C103F0B8EC04F000C03AF101C03BF147
:102C320002C03CF103C03DF12FC100F0000E016E55
:102C4200026E036E003600900136023603360036FD
:102C52000090013602360336A80E0024F66E550E99
:102C62000120F76E000E0220F86E0900F5CF04F085
:102C72000900F5CF05F00900F5CF06F00900F5CF00
:102C820007F03AC100F03BC101F03CC102F03DC186
:102C920003F0E9EC06F0300E00261EC1E1FF1FC171
:102CA200E2FF00C0E6FF1E4B1F2B3E4B3F2B2D5178
:102CB2002E1103E133B701D06FD01EC1E1FF1FC156
:102CC200E2FF2E0EE66E1E4B1F2B3E4B3F2B2F516B
:102CD2002D5F000E2E5B2F534DE02F072FC100F00A
:102CE200000E016E026E036E00360090013602364F
:102CF200033600360090013602360336A80E002451
:102D0200F66E550E0120F76E000E0220F86E0900D5
:102D1200F5CF04F00900F5CF05F00900F5CF06F074
:102D22000900F5CF07F03AC100F03BC101F03CC108
:102D320002F03DC103F0E9EC06F00A0E046E000E4B
:102D4200056E066E076EE9EC06F008C000F009C0D9
:102D520001F00AC002F00BC003F0300E00261EC1C3
:102D6200E1FF1FC1E2FF00C0E6FF1E4B1F2B3E4BDF
:102D72003F2BB1D72D512E110FE01EC1E1FF1FC114
:102D8200E2FF300EE66E1E4B1F2B3E4B3F2B010E19
:102D92002D5F000E2E5BEED732AB0BD01EC1E1FFD2
:102DA2001FC1E2FF450EE66E1E4B1F2B3E4B3F2B13
:102DB2000AD01EC1E1FF1FC1E2FF650EE66E1E4B87
:102DC2001F2B3E4B3F2B800E3919006E800E005C8C
:102DD20002E1000E385D11E238510008386F3951B6
:102DE200000E39571EC1E1FF1FC1E2FF2D0EE66E34
:102DF2001E4B1F2B3E4B3F2B0AD01EC1E1FF1FC1B2
:102E0200E2FF2B0EE66E1E4B1F2B3E4B3F2B0A0E94
:102E1200046E000E056E38C100F039C101F085EC78
:102E220006F0300E00261EC1E1FF1FC1E2FF00C006
:102E3200E6FF01011E4B1F2B3E4B3F2B0A0E046E79
:102E4200000E056E38C100F039C101F085EC06F0C4
:102E520008C000F009C001F0300E00261EC1E1FFDB
:102E62001FC1E2FF00C0E6FF01011E4B1F2B3E4BBC
:102E72003F2B32A71AD0800E006E800E3119005CF3
:102E820002E13051000811E21EC1E1FF1FC1E2FF61
:102E9200200EE66E1E4B1F2B3E4B3F2B010E305F6A
:102EA200000E315B30513111EFE176EF0FF033A3B9
:102EB200F3D0800E3919006E800E005C02E1000E24
:102EC200385D0AE2010E385D006E000E3959016E5E
:102ED20000502D5F01502E5B34C100F035C101F06E
:102EE20036C102F037C103F0B8EC04F000C03AF189
:102EF20001C03BF102C03CF103C03DF1010E2F6F56
:102F02002F510A0A34E02FC100F0000E016E026E4A
:102F1200036E00360090013602360336003600900A
:102F2200013602360336A80E0024F66E550E012035
:102F3200F76E000E0220F86E0900F5CF01F00900CD
:102F4200F5CF02F00900F5CF03F00900F5CF04F048
:102F520004503D5D08E103503C5D05E102503B5DDC
:102F620002E101503A5D01E202D02F2BC9D72F5165
:102F72002D5D446F000E2E59456F44C12DF145C1A0
:102F82002EF13AC100F03BC101F03CC102F03DC15B
:102F920003F023EC06F000C004F001C005F002C00B
:102FA20006F003C007F034C100F035C101F036C1AC
:102FB20002F037C103F020EC06F000C040F101C07E
:102FC20041F102C042F103C043F144C146F15FEC5A
:102FD20008F040C104F041C105F042C106F043C10E
:102FE20007F062EC01F0000E046E000E056E000E9A
:102FF200066E7E0E076E6DEC02F0B8EC04F000C0B7
:103002003AF101C03BF102C03CF103C03DF12D5148
:103012002E1142E00A0E046E000E056E066E076E59
:103022003AC100F03BC101F03CC102F03DC103F0E6
:10303200E9EC06F008C000F009C001F00AC002F095
:103042000BC003F0000E046E031808E104500218CE
:1030520005E10450011802E10050000A1DE10A0EC8
:10306200046E000E056E066E076E3AC100F03BC19B
:1030720001F03CC102F03DC103F0E9EC06F000C0F2
:103082003AF101C03BF102C03CF103C03DF1010E37
:103092002D5F000E2E5BBBD7800E006E800E2E19A8
:1030A200005C02E12D510C0816E32DC146F185ECBE
:1030B2000CF034C104F035C105F036C106F037C159
:1030C20007F06DEC02F000C034F101C035F102C02E
:1030D20036F103C037F134C100F035C101F036C119
:1030E20002F037C103F0046A056A066A076A3DEC1A
:1030F2000BF0000ED8A4010E006E0052D8B477D0A7
:1031020034C100F035C101F036C102F037C103F01D
:10311200B8EC04F0000E046E031808E10450021823
:1031220005E10450011802E10050000A60E1800E3E
:10313200006E800E3919005C02E13851010857E235
:1031420038C146F15FEC08F000C004F001C005F0A0
:1031520002C006F003C007F034C100F035C101F02F
:1031620036C102F037C103F0C7EC0BF05F0E046EFC
:10317200700E056E090E066E810E076E54EC0BF092
:10318200010ED8B0000E006E005206E0090E0101D9
:10319200385F000E395B05D00101080E385F000E62
:1031A200395B38C146F15FEC08F000C004F001C0A1
:1031B20005F002C006F003C007F034C100F035C1CB
:1031C20001F036C102F037C103F0C7EC0BF0B8ECE6
:1031D20004F000C03AF101C03BF102C03CF103C06F
:1031E2003DF10101346B356B366B376B38D034C12E
:1031F20000F035C101F036C102F037C103F0B8EC7E
:1032020004F000C03AF101C03BF102C03CF103C03E
:103212003DF13AC100F03BC101F03CC102F03DC1B9
:1032220003F023EC06F000C004F001C005F002C078
:1032320006F003C007F034C100F035C101F036C119
:1032420002F037C103F020EC06F000C034F101C0F7
:1032520035F102C036F103C037F1386B396B010E1C
:103262002F6F2F510A0A34E02FC100F0000E016EB9
:10327200026E036E003600900136023603360036C7
:103282000090013602360336A80E0024F66E550E63
:103292000120F76E000E0220F86E0900F5CF01F052
:1032A2000900F5CF02F00900F5CF03F00900F5CFD0
:1032B20004F004503D5D08E103503C5D05E102501D
:1032C2003B5D02E101503A5D01E202D02F2BC9D7EA
:1032D2002F512D25006E000E2E21016E3851002631
:1032E200395101220050305F0150315B33B704D0B5
:1032F2002D512E1101E104D0010E305F000E315B21
:10330200030E3215006E33C101F0000E011600509B
:10331200011004E0010E305F000E315B32A539D09E
:1033220032A312D032A103D02D0E276F02D02B0E62
:10333200276F1EC1E1FF1FC1E2FF27C1E6FF1E4B3F
:103342001F2B3E4B3F2B0CD032A10AD01EC1E1FFF6
:103352001FC1E2FF200EE66E1E4B1F2B3E4B3F2B82
:10336200800E006E800E3119005C02E130510008BF
:103372000FE21EC1E1FF1FC1E2FF300EE66E1E4BDF
:103382001F2B3E4B3F2B010E305F000E315BE8D707
:103392003AD032B718D0800E006E800E3119005C20
:1033A20002E1305100080FE21EC1E1FF1FC1E2FF3E
:1033B200200EE66E1E4B1F2B3E4B3F2B010E305F45
:1033C200000E315BE8D732A312D032A103D02D0E0A
:1033D200286F02D02B0E286F1EC1E1FF1FC1E2FF32
:1033E20028C1E6FF1E4B1F2B3E4B3F2B0CD032A1B8
:1033F2000AD01EC1E1FF1FC1E2FF200EE66E1E4B86
:103402001F2B3E4B3F2B2FC100F02F0700524CE0E9
:103412002FC100F0000E016E026E036E00360090A6
:103422000136023603360036009001360236033684
:10343200A80E0024F66E550E0120F76E000E022033
:10344200F86E0900F5CF04F00900F5CF05F0090088
:10345200F5CF06F00900F5CF07F03AC100F03BC105
:1034620001F03CC102F03DC103F0E9EC06F00A0EA6
:10347200046E000E056E066E076EE9EC06F008C0DB
:1034820000F009C001F00AC002F00BC003F0300ED8
:1034920000261EC1E1FF1FC1E2FF00C0E6FF1E4B76
:1034A2001F2B3E4B3F2BAFD7800E006E800E39197B
:1034B200005C02E1385100080FE21EC1E1FF1FC1AA
:1034C200E2FF300EE66E1E4B1F2B3E4B3F2B010ED2
:1034D200385F000E395BE8D7800E000A006E800E5E
:1034E2002E19005C02E12D51080803E2080E2F6F2D
:1034F20002D02DC12FF12F512D5F000E2E5B2F53C5
:1035020003E133B701D00AD01EC1E1FF1FC1E2FFC0
:103512002E0EE66E1E4B1F2B3E4B3F2B2FC146F14C
:103522005FEC08F034C104F035C105F036C106F095
:1035320037C107F062EC01F053EC05F000C03AF13C
:1035420001C03BF102C03CF103C03DF12F534DE0FD
:103552002F072FC100F0000E016E026E036E0036BF
:1035620000900136023603360036009001360236EC
:103572000336A80E0024F66E550E0120F76E000EDB
:103582000220F86E0900F5CF04F00900F5CF05F02E
:103592000900F5CF06F00900F5CF07F03AC100F0B7
:1035A2003BC101F03CC102F03DC103F0E9EC06F081
:1035B2000A0E046E000E056E066E076EE9EC06F04A
:1035C20008C000F009C001F00AC002F00BC003F00D
:1035D200300E00261EC1E1FF1FC1E2FF00C0E6FF60
:1035E2001E4B1F2B3E4B3F2BB1D72D512E110FE0FF
:1035F2001EC1E1FF1FC1E2FF300EE66E1E4B1F2B04
:103602003E4B3F2B010E2D5F000E2E5BEED732A7F5
:103612001AD0800E006E800E3119005C02E130512A
:10362200000811E21EC1E1FF1FC1E2FF200EE66E9B
:103632001E4B1F2B3E4B3F2B010E305F000E315BAA
:1036420030513111EFE176EF0FF0C00E3215016EFD
:1036520033C102F0000E0216000E021802E1000E43
:103662000118D8A480D032A927D023C1E9FF24C1F0
:10367200EAFFEECF00F0EECF01F000C0E9FF01C09B
:10368200EAFFEECF3AF1EECF3BF1EECF3CF1EECFD7
:103692003DF123C1E9FF24C1EAFF040EEE24006ECE
:1036A200000EEE20016E23C1E1FF24C1E2FF00C043
:1036B200E6FF01C0E6FF2FD023C1E9FF24C1EAFFE4
:1036C200EECF00F0EECF01F000C0E9FF01C0EAFF4B
:1036D200EECF00F0EECF01F0000E01BEFF0E026E43
:1036E200036E00C03AF101C03BF102C03CF103C0DD
:1036F2003DF123C1E9FF24C1EAFF020EEE24006E70
:10370200000EEE20016E23C1E1FF24C1E2FF00C0E2
:10371200E6FF01C0E6FF800E3D19006E800E005CE0
:1037220008E1000E3C5D05E1000E3B5D02E1000E8A
:103732003A5D18E2030E3213000E3313006A016A77
:10374200026A036A3A51005E3B51015A3C51025AE5
:103752003D51035A00C03AF101C03BF102C03CF1B5
:1037620003C03DF14ED032A927D023C1E9FF24C1C5
:10377200EAFFEECF00F0EECF01F000C0E9FF01C09A
:10378200EAFFEECF3AF1EECF3BF1EECF3CF1EECFD6
:103792003DF123C1E9FF24C1EAFF040EEE24006ECD
:1037A200000EEE20016E23C1E1FF24C1E2FF00C042
:1037B200E6FF01C0E6FF25D023C1E9FF24C1EAFFED
:1037C200EECF00F0EECF01F000C0E9FF01C0EAFF4A
:1037D200EECF3AF1EECF3BF1000E3C6F3D6F23C1CD
:1037E200E9FF24C1EAFF020EEE24006E000EEE2075
:1037F200016E23C1E1FF24C1E2FF00C0E6FF01C068
:10380200E6FF000E2E1902E1000E2D190FE1000E47
:10381200006E3D1908E100503C1905E100503B19CA
:1038220002E13A51000A02E12D4B2E2BC00E321555
:10383200006E00C005F0AED0010E2F6F2F510A0AA4
:1038420034E02FC100F0000E016E026E036E0036EE
:1038520000900136023603360036009001360236F9
:103862000336A80E0024F66E550E0120F76E000EE8
:103872000220F86E0900F5CF01F00900F5CF02F041
:103882000900F5CF03F00900F5CF04F004503D5DC7
:1038920008E103503C5D05E102503B5D02E101504D
:1038A2003A5D01E202D02F2BC9D782D0010E2F6FD1
:1038B2002F51080A34E02FC100F0000E016E026E93
:1038C200036E003600900136023603360036009051
:1038D200013602360336D00E0024F66E550E012054
:1038E200F76E000E0220F86E0900F5CF01F0090014
:1038F200F5CF02F00900F5CF03F00900F5CF04F08F
:1039020004503D5D08E103503C5D05E102503B5D22
:1039120002E101503A5D01E202D02F2BC9D748D013
:10392200010E2F6F2F510C0A34E02FC100F0000E50
:10393200016E026E036E00360090013602360336C7
:1039420000360090013602360336780E0024F66EF9
:10395200550E0120F76E000E0220F86E0900F5CF19
:1039620001F00900F5CF02F00900F5CF03F00900DC
:10397200F5CF04F004503D5D08E103503C5D05E1E4
:1039820002503B5D02E101503A5D01E202D02F2B71
:10399200C9D70ED00550000AD8B44ED70550C00A78
:1039A200D8B44AD70550800A81E00550400AB8E0F1
:1039B200800E006E800E2E19005C02E12D512F5DEB
:1039C20003E22DC12FF10DD0800E2E19006E800E54
:1039D200005C02E12F512D5D04E22FC12DF1000E9A
:1039E2002E6F305131110EE0030E3215006E33C1CD
:1039F20001F0000E01160050011004E0010E305FCC
:103A0200000E315B800E2E19006E800E3119005CA3
:103A120002E130512D5D05E22D51305F2E51315BB7
:103A220002D0306B316BC40E3215016E3351080B6C
:103A3200026E0250080A02E1400E011808E13051FC
:103A4200311104E0010E305F000E315B1CD0C00E5C
:103A52003215016E3351080B026E0250080A02E160
:103A6200800E011810E1800E006E800E3119005C8C
:103A720002E13051020805E2020E305F000E315BB6
:103A820002D0306B316B32A55DD032A312D032A19D
:103A920003D02D0E296F02D02B0E296F1EC1E1FF1C
:103AA2001FC1E2FF29C1E6FF1E4B1F2B3E4B3F2BDE
:103AB20034D032A10BD01EC1E1FF1FC1E2FF200EA4
:103AC200E66E1E4B1F2B3E4B3F2B27D0C00E3215EE
:103AD200016E3351080B026E0250080A02E1800E99
:103AE20001181BE11EC1E1FF1FC1E2FF300EE66EAD
:103AF2001E4B1F2B3E4B3F2B32AB03D0580E2A6F6F
:103B020002D0780E2A6F1EC1E1FF1FC1E2FF2AC157
:103B1200E6FF1E4B1F2B3E4B3F2B3051311111E064
:103B22001EC1E1FF1FC1E2FF300EE66E1E4B1F2BCE
:103B32003E4B3F2B010E305F000E315B3051311195
:103B4200EFE174D03051311113E032B711D01EC100
:103B5200E1FF1FC1E2FF200EE66E1E4B1F2B3E4B04
:103B62003F2B010E305F000E315B30513111EFE11E
:103B720032A312D032A103D02D0E2B6F02D02B0E06
:103B82002B6F1EC1E1FF1FC1E2FF2BC1E6FF1E4BDF
:103B92001F2B3E4B3F2B0CD032A10AD01EC1E1FF9E
:103BA2001FC1E2FF200EE66E1E4B1F2B3E4B3F2B2A
:103BB200C00E3215016E3351080B026E0250080A14
:103BC20002E1400E01180BE11EC1E1FF1FC1E2FF3D
:103BD200300EE66E1E4B1F2B3E4B3F2B27D0C00EE6
:103BE2003215016E3351080B026E0250080A02E1CF
:103BF200800E01181BE11EC1E1FF1FC1E2FF300E62
:103C0200E66E1E4B1F2B3E4B3F2B32AB03D0580EA2
:103C12002C6F02D0780E2C6F1EC1E1FF1FC1E2FF94
:103C22002CC1E6FF1E4B1F2B3E4B3F2B800E006E1E
:103C3200800E2E19005C02E12D512F5D0BE21EC198
:103C4200E1FF1FC1E2FF300EE66E1E4B1F2B3E4B03
:103C52003F2BECD72DC100F02EC101F0010E2D5FDC
:103C6200000E2E5B00500110D8B42AD1C00E3215BE
:103C7200006E00C040F10AD12DC100F02EC101F04A
:103C8200000E2EBFFF0E026E036E0036009001364C
:103C92000236033600360090013602360336A80E8D
:103CA2000024F66E550E0120F76E000E0220F86E0B
:103CB2000900F5CF04F00900F5CF05F00900F5CFB2
:103CC20006F00900F5CF07F03AC100F03BC101F060
:103CD2003CC102F03DC103F0E9EC06F00A0E046EAD
:103CE200000E056E066E076EE9EC06F008C000F0E5
:103CF20009C001F00AC002F00BC003F0300E00242C
:103D02002F6FD3D032AB45D02DC100F02EC101F0C0
:103D1200000E2EBFFF0E026E036E003600900136BB
:103D22000236033600360090013602360336D00ED4
:103D32000024F66E550E0120F76E000E0220F86E7A
:103D42000900F5CF04F00900F5CF05F00900F5CF21
:103D520006F00900F5CF07F03AC100F03BC101F0CF
:103D62003CC102F03DC103F0E9EC06F00F0E001673
:103D7200000E011602160316270E0024F66E560ECA
:103D82000120F76E000E0220F86E0900F5CF2FF128
:103D920044D02DC100F02EC101F0000E2EBFFF0E47
:103DA200026E036E0036009001360236033600368C
:103DB2000090013602360336D00E0024F66E550E00
:103DC2000120F76E000E0220F86E0900F5CF04F014
:103DD2000900F5CF05F00900F5CF06F00900F5CF8F
:103DE20007F03AC100F03BC101F03CC102F03DC115
:103DF20003F0E9EC06F00F0E0016000E0116021693
:103E02000316160E0024F66E560E0120F76E000EF3
:103E12000220F86E0900F5CF2FF147D02DC100F036
:103E22002EC101F0000E2EBFFF0E026E036E003691
:103E32000090013602360336003600900136023613
:103E42000336780E0024F66E550E0120F76E000E32
:103E52000220F86E0900F5CF04F00900F5CF05F055
:103E62000900F5CF06F00900F5CF07F03AC100F0DE
:103E72003BC101F03CC102F03DC103F0E9EC06F0A8
:103E8200070E00142F6F300E2F270FD04051000A5B
:103E9200D8B4F2D64051C00AD8B4EED64051800A06
:103EA200D8B430D74051400AB9E01EC1E1FF1FC16A
:103EB200E2FF2FC1E6FF1E4B1F2B3E4B3F2BCAD604
:103EC20032A71AD0800E006E800E3119005C02E11A
:103ED2003051000811E21EC1E1FF1FC1E2FF200EB6
:103EE200E66E1E4B1F2B3E4B3F2B010E305F000E2A
:103EF200315B30513111EFE176EF0FF03EC100F04E
:063F02003FC101F01200B6
:103F0800220E0C6E086A096A0A6A0B6A0C06D8B493
:103F18001FD0D8900B320A320932083203320232EB
:103F280001320032D8A0F2D70C06D8B409D0045018
:103F380008260550092206500A2207500B22EAD704
:103F4800045008260550092206500A2207500B2261
:023F5800120055
:103F5A000101126B0FC101F0010E006E015004E065
:103F6A0000360090FF0FFBD700C000F10DC1E9FF3A
:103F7A000EC1EAFF0050EE14016E0152010ED8A4E0
:103F8A00000E006E1151001A1AE01051000806E2E4
:103F9A0006EC0EF006EC0EF01007F7D70DC1E9FF9C
:103FAA000EC1EAFF0051EE14016E0152010ED8A4AF
:103FBA00000E006E1151001A02E0FF0E126F12C1BC
:043FCA0000F01200F1
:103FCE000DC1E9FF0EC1EAFFEECF0FF1000E0101A8
:103FDE00106F000E106F000E101902E1200E0F1957
:103FEE0007E0000E101902E1090E0F1901E003D0CF
:103FFE000D4B0E2BE5D7116B126B136B146B000E62
:10400E00101902E12D0E0F1905E1134B142B0D4B58
:10401E000E2B08D0000E101902E12B0E0F1902E123
:10402E000D4B0E2B0DC1E9FF0EC1EAFFEECF0FF1C6
:10403E00000E106F000E106F0FC146F136EC06F039
:10404E00005219E011C100F012C101F00A0E046E07
:10405E00000E056EF8EC05F0300E0F5D026E000ED0
:10406E001059036E02500024116F03500120126F7D
:10407E000D4B0E2BD7D71351141108E01151000818
:10408E00006E12C101F0000E015604D011C100F0F5
:06409E0012C101F0120046
:1040A400120E01011A6F010E1B6F0DC11EF10EC11C
:1040B4001FF10FC120F110C121F111C122F11A0E1B
:1040C400236F010E246F71EC0FF000C018F101C0D2
:1040D40019F100500D25E16E01500E21E26EE66AE1
:0A40E40018C100F019C101F012002C
:1040EE0000C100F00032009E0032009E0032009EA1
:1040FE000032009E0A0E0002F3CF01F00F0E0101F6
:0A410E000015006E0150002612009B
:104118000101196B1A6B1B6B1C6B1D6B0DC115F123
:104128000EC116F10FC117F110C118F11851FF0A8D
:1041380008E11751FF0A05E11651FF0A02E115517E
:10414800FF0A0DE111C11EF112C11FF1620E206FAD
:10415800000E216F4AEC0FF0030E006E5ED2010EC6
:10416800006F17AF0FD0800E1719006E00C017F13F
:10417800002B1A2B11C1E1FF12C1E2FF2D0EE66ED2
:10418800114B122B000E006E181908E10050171978
:1041980005E10050161902E11551000A0CE111C1A0
:1041A8001EF112C11FF15C0E206F000E216F4AEC48
:1041B8000FF0006A32D21851FF0A08E11751000ABD
:1041C80005E11651000A02E11551000A0DE111C17D
:1041D8001EF112C11FF15E0E206F000E216F4AEC16
:1041E8000FF000C100F019D2000E046E000E056E2B
:1041F800000E066E7F0E076E15C100F016C101F0A5
:1042080017C102F018C103F054EC0BF0010ED8B03E
:10421800000E006E00521CE015C100F016C101F03E
:1042280017C102F018C103F0000E046E000E056EEF
:10423800200E066E820E076E62EC01F000C015F1CA
:1042480001C016F102C017F103C018F11D07CCD741
:10425800000E046E000E056E200E066E820E076EAE
:1042680015C100F016C101F017C102F018C103F022
:1042780054EC0BF0000ED8B0010E006E00521CE09A
:1042880015C100F016C101F017C102F018C103F002
:10429800CD0E046ECC0E056E4C0E066E7B0E076EB0
:1042A80062EC01F000C015F101C016F102C017F16F
:1042B80003C018F11D2BCCD7FF0E1515086EFF0E85
:1042C8001615096E7F0E17150A6E000E18150B6E5F
:1042D80008C004F009C005F00AC006F00BC007F0DA
:1042E80004360490053606360736000E1515006E9E
:1042F800000E1615016E000E1715026EFF0E18152A
:10430800036E00C015F101C016F102C017F103C019
:1043180018F104501511006E05501611016E065063
:104328001711026E07501811036E00C015F101C075
:1043380016F102C017F103C018F17F0E185D006E68
:1043480000C014F1010E186F00C004F015C100F090
:1043580016C101F017C102F018C103F0045007E0BC
:1043680000360090013602360336FF0FF8D700C03A
:1043780015F101C016F102C017F103C018F111C1FF
:10438800E1FF12C1E2FF1851300FE66E114B122BFC
:104398001A2B800E1D19006E800E010A005C08E3BE
:1043A800800E060A006E800E1D19005C01E30BD01A
:1043B80011C1E1FF12C1E2FF2E0EE66E114B122B66
:1043C800010E196F1A2B060E146F1451000A58E0CB
:1043D800186B15C100F016C101F017C102F018C121
:1043E80003F000360090013602360336003600909E
:1043F800013602360336155100261651012217518F
:1044080002221851032200C015F101C016F102C0A2
:1044180017F103C018F115C100F016C101F017C15A
:1044280002F018C103F00036009001360236033658
:1044380000C015F101C016F102C017F103C018F150
:1044480011C1E1FF12C1E2FF1851300FE66E114BA6
:10445800122B1A2B1951000A11E11D071D51000AD0
:104468000DE1010E1C6F11C1E1FF12C1E2FF2E0E1A
:10447800E66E114B122B010E196F1A2B1407A5D7D4
:104488001C51010AD8B41A07FF0E1125E96EFF0E58
:104498001221EA6EEE502E0A05E1010E115F000EA0
:1044A800125B1A07800E000A006E800E1D19005C50
:1044B80002E2010E1B6F800E1D19006E800E000AAD
:1044C800005C02E2020E1B6F1DC114F1800E090A86
:1044D800006E800E1D19005C02E31B2B02D0020E39
:1044E8001B271B511A25016E026A000E0222800E3C
:1044F8000218006E800E005C02E11351015C0AE2B2
:1045080011C1E1FF12C1E2FF300EE66E114B122B12
:104518001A2BE7D71D51000A43E011C1E1FF12C170
:10452800E2FF650EE66E114B122B800E1D19006E10
:10453800800E000A005C0BE211C1E1FF12C1E2FF2C
:104548002D0EE66E114B122B1D5100081D6F1DC15B
:1045580014F1800E090A006E800E1D19005C0FE22E
:104568000A0E046E14C100F01EEC02F011C1E1FF46
:1045780012C1E2FF0050300FE66E114B122B0A0EEB
:10458800046E14C100F01EEC02F008C000F011C166
:10459800E1FF12C1E2FF0050300FE66E114B122B03
:1045A8001B511A25006E00C01AF11351005C016EF0
:1045B80001C014F1800E000A006E800E0118005C24
:1045C8000EE2800E000A006E800E1419005C06E2EE
:1045D8001407010E115F000E125BF3D718D0800E7E
:1045E8001419006E800E000A005C11E2800E141986
:1045F800006E800E000A005C0AE2142B11C1E1FF74
:1046080012C1E2FF300EE66E114B122BEFD711C12B
:0C461800E1FF12C1E2FFE66A006A120036
:10462400F1EC0EF0A20E01011E6F13EC0EF00DC1A1
:104634001EF113EC0EF00FC11EF113EC0EF011EC91
:044644000EF0120062
:104648000101526B536B505344E05051FF0AD8A4F8
:104658005007B0EC0EF00050000A01E1FAD7B5ECB3
:104668000EF000C051F1010152514C25E16E000ECF
:104678004D21E26E00C0E6FF522B53514E25E96EE4
:10468800000E4F21EA6EEE50511902E1532B09D06A
:10469800536B4EC1E9FF4FC1EAFFEE505119D8B430
:1046A800532B53514E25E96E000E4F21EA6EEE5002
:1046B800000A0EE15351525D006E016A000E015A64
:1046C80000504C25E16E01504D21E26EE66A06D09D
:0E46D800BAD74CC1E1FF4DC1E2FFE66A120005
:1046E6000B6A0350D8B4B9EF23F002500A6E028E5B
:1046F6008E0E035E03AEBDEF23F0036C080E035C63
:10470600D8A098EF23F0036E013602C001F0026ACA
:10471600080E035CD8A098EF23F0036E0136016AF9
:104726000350D8A4D890A2EF23F00350D8B4A2EF38
:1047360023F0D89002320132032E9CEF23F00BBCFB
:1047460001A0AFEF23F0D8A0AFEF23F0012AD8B431
:10475600022A02BECCEF23F00AAED2EF23F0021EED
:10476600011E012AD8B4022AD2EF23F0026A016A96
:10477600D2EF23F00B800BAED6EF23F0026A0AAE1F
:10478600D6EF23F0FF0E026E016E0A360232D6EF26
:1047960023F0010E0C6E8FEC04F0D8EF23F0000E20
:1047A6000C6ED8EF23F0FF0E0C6E0150006E025017
:0447B600016E12007E
:1047BA000DC1E9FF0EC1EAFFEE5211E00DC1E9FF9A
:1047CA000EC1EAFF0FC1D9FF10C1DAFFEE50DE18A1
:1047DA0006E101010D4B0E2B0F4B102BE9D70DC132
:1047EA00E9FF0EC1EAFF0FC1D9FF10C1DAFFDE509F
:0C47FA00EE5C006E016A000E015A120015
:1048060001010F6B0DC1E9FF0EC1EAFFEECF00F10A
:104816000051000A0FE000C14BF1B1EC04F00101B8
:104826000F2B0F510D25E96E000E0E21EA6EEECF0D
:0648360000F1EED71200B4
:10483C00D60E0001F46F0B0EF56F000EF66F000E26
:10484C00F76FE20E0101056F1D0E066F000E076F6C
:10485C00000E086FFF0E096FFF0E0A6F000E0B6F34
:10486C00000E0C6FFF0E016FFF0E026FFF0E036F39
:10487C00FF0E046F260E0001F86F1C0EF96F1E0E52
:10488C00FA6F010EFB6F220EFC6F1C0EFD6F000EFB
:10489C00FE6F000EFF6F949894968B988B9694886D
:0C48AC009486C79EC79C380EC66E120092
:1048B800620E0001EA6F090EEB6F4B0EEC6F010EF2
:1048C800ED6F6A0EEE6F1D0EEF6F000EF06F000EAB
:1048D800F16F600EE66F1D0EE76F000EE86F000EB9
:1048E800E96FFF0EE26FFF0EE36F000EE46F000E3C
:1048F800E56FAC8A900EAB6E948E949C9EAA03D002
:08490800AECF00F0FBD7120056
:1049100010D0800E01010D6F1AD0C00E0D6F17D090
:10492000940E0D6F14D0D40E0D6F11D0800E0D6F3C
:104930000ED001010D51010AECE00D51020AEDE02B
:104940000D51030AEDE00D51040AEDE0EFD70E051D
:10495000006E0D51002600C00DF100C046F142EC82
:1049600006F07F9B0101006B00510F25E96E000EE0
:104970001021EA6EEE520DE000510F25E96E000E97
:104980001021EA6EEECF1EF13AEC0FF00101002B80
:08499000EBD700017F8B120040
:104998000900F5CFE6FF0006FBE10106F9E1120088
:1049A8000DC1DCF00EC1DDF00FC101F0010E006E8B
:1049B800015004E000360090FF0FFBD700C0DAF08A
:1049C800001E00C0DBF0120E01010D25E96E000E7D
:1049D8000E21EA6E0050EF16120EE95E0050EF1637
:0249E8001200BB
:1049EA00939A93989390939293949396819A819899
:1049FA0081968194819281909DEC04F09DEC04F063
:104A0A009DEC04F081828180818AA8EC04F0819A6D
:104A1A009DEC04F0818AA8EC04F0819A9DEC04F0E4
:104A2A00818AA8EC04F0819A9DEC04F08190818A35
:104A3A00A8EC04F0819A9DEC04F0818AA8EC04F0B9
:104A4A00819A81928186818AA8EC04F0819A9DECF0
:104A5A0004F081968180818AA8EC04F0819A819081
:104A6A00818AA8EC04F0819A9DEC04F0818AA8EC72
:104A7A0004F0819A8180818AA8EC04F0819A9DECE5
:104A8A0004F08190818AA8EC04F0819A818681845D
:104A9A0081828180818AA8EC04F0819A9DEC04F0DD
:064AAA0000017F8B1200E9
:104AB000D00E01010F6F070E106F000E116F126FF5
:104AC000D00E006E070E016E000E026E000E036E19
:104AD0000DC104F00EC105F0000E066E076E84ECE9
:104AE0001FF000C00FF101C010F102C011F103C0AE
:104AF00012F1000E035C08E1000E025C05E1020EFB
:104B0000015C02E1940E005C01E231D0940E0F5F73
:104B1000020E105B000E115B125B050E006E005062
:104B200007E01233113310330F33129FFF0FF8D702
:104B30000FC100F010C101F011C102F012C103F069
:104B4000010E0F5F000E105B115B125B0050011035
:104B5000021003100CE00000000000000000000044
:104B6000000000000000000000000000E1D712007B
:104B70000B6A0C6A0A6A0350D8B4EDEF25F00A9E5E
:104B8000028E860E035E03BECBEF25F0D8B4CBEFCA
:104B900025F0F0EF25F0036C080E035CD8A0D9EFE8
:104BA00025F0036E0236026A0350D8A4D890E2EFD3
:104BB00025F00350D8B4E2EF25F0D8900232032E4E
:104BC000DDEF25F00BBC02A0EDEF25F0D8A0EDEF56
:104BD00025F0022AD8B4F7EF25F0016AFDEF25F0A1
:104BE0000B800BAE01EF26F0016A01EF26F0010EFB
:104BF0000C6E8FEC04F003EF26F0000E0C6E03EF4A
:0C4C000026F0FF0E0C6E0250006E120039
:104C0C000DC102F00EC103F010C100F011C101F092
:104C1C00010E0101105F000E115B0050011009E044
:104C2C0002C0E1FF03C0E2FF0FC1E6FF024A032A04
:0C4C3C00EBD70DC100F00EC101F012001A
:104C480042EC0FF0E80E046E030E056E000E066EC1
:104C5800076E84EC1FF000C015F101C016F102C008
:104C680017F103C018F10DC104F00EC105F0000ED4
:104C7800066E076EE9EC06F000C015F101C016F1EA
:104C880002C017F103C018F100C005F001C006F01A
:104C980002C007F003C008F00832073206320532B6
:104CA800089E0832073206320532089E05C000F019
:104CB80006C001F007C002F008C003F00332023258
:104CC80001320032039E00C011F101C012F142EC22
:104CD8000FF00FC104F010C105F0000E066E076E4C
:104CE80084EC1FF011C109F012C10AF0000E0B6E1E
:104CF8000C6E030E086E09C004F00AC005F00BC064
:104D080006F00CC007F0085007E00436049005369A
:104D180006360736FF0FF8D7E9EC06F000C015F1A4
:104D280001C016F102C017F103C018F10A0E046E93
:104D3800000E056E11C100F012C101F0D6EC0EF0A4
:104D480000C011F101C012F1000E015C02E1030E76
:104D5800005C01E24BD0DCC0E9FFDDC0EAFF0101E5
:104D68001851000808E11751000805E1165100081C
:104D780002E11551000837E20001DA51EF12010192
:104D880012530EE0136B146B000E145D02E1125106
:104D9800135D06E21E6BBEEC0EF0134B142BF4D71A
:104DA80011C11EF1BEEC0EF00001DB51EF1601013E
:104DB80012530EE0136B146B000E145D02E11251D6
:104DC800135D06E21E6BBEEC0EF0134B142BF4D7EA
:104DD80011C11EF1BEEC0EF0010E155F000E165B40
:0E4DE800175B185BBCD70001DB51EF16120001
:104DF600C26A0001661D006E0050C1160F0EC01279
:104E0600C08E00C100F000360090003600900050C1
:104E1600C212C280D0EC0EF0C282C2A201D0FDD76F
:104E2600C4CF01F0006A00C00DF101C00EF1C350FD
:104E36000012000E011200C00DF101C00EF1C29069
:104E4600000E0014026E0150800B036E000E031854
:104E560002E1000E021803E001010D6B0E6B0DC19D
:084E660000F00EC101F0120082
:104E6E000050086E0150006E016A026A036A0B6AF6
:104E7E000C6A960E036E0A6A00C001F008C000F0BC
:0A4E8E00086A026A74EC0EF01200CC
:104E980033EC2BF0030E0F01386F396B3A6B3B6B19
:104EA800030E926EC00E936E956A9680F286628C9F
:104EB800628EF28A880ED56ED80ED76EF00ED66E38
:104EC800F28E840E01010D6F0F0E0E6F010E0F6F23
:104ED80067DD87DD0C0E0101466F42EC06F0140E0B
:104EE800C86EA8DCB886B06ACF0EAF6EAC84E0DCC2
:104EF8009D8A9E9AF28C7F977F997F95799E789E5E
:104F08007F837FA3D9D27FA92DD07F998C6A010E88
:104F18000101466F42EC06F0010E01010D6F010E12
:104F28000E6F310E0F6F000E106FEEDC81AC1AD0D1
:104F38008C1E060E0B6E130E0C6EAD0E0D6E0D2E26
:104F4800FED70C2EFCD70B2EFAD700000000D00E8F
:104F580001010D6F070E0E6FE80E0F6F030E106F35
:104F68006FDEE4D7010E0101006F41DF7CDF00C076
:104F780040F001C041F002C042F003C043F0F4DD4C
:104F880000C000F177EC20F0000E046E000E056EF4
:104F9800480E066E850E076E40C000F041C001F055
:104FA80042C002F043C003F020EC06F0CD0E046EC0
:104FB800CC0E056ECC0E066E7B0E076E62EC01F011
:104FC800000E046E000E056E480E066E860E076E05
:104FD8006DEC02F073EC23F000C04CF001C04DF012
:104FE800C80E0D6F000E0E6F380E0F6F560E106F35
:104FF800000E116F000E046E000E056E7A0E066E1E
:10500800880E076E40C000F041C001F042C002F0B7
:1050180043C003F0C7EC0BF000C012F101C013F15C
:1050280002C014F103C015F152EC20F0010E0D6F0F
:10503800010E0E6FC80E0F6F000E106F65DC4A6A06
:105048004B6A800E4B18006E800E005C02E1070E62
:105058004A5C0EE28CCF00F00036009000C08CFF56
:105068004CC00DF14DC00EF11FDD4A4A4B2AE9D75D
:10507800800E8C6E4A6A4B6A800E4B18006E800E4A
:10508800005C02E1070E4A5C0EE28CCF00F00032B1
:10509800009E00C08CFF4CC00DF14DC00EF104DD28
:1050A8004A4A4B2AE9D70101820E0D6F0F0E0E6F87
:1050B800010E0F6F010E106F010E116FADEC1FF096
:1050C800005202E000017F8500017FA512D0820E08
:1050D80001010D6F0F0E0E6F010E0F6F010E106F95
:1050E800116BADEC1FF0005204E0446A456A000100
:1050F8007F950101006B7BDEB6DE00C046F001C083
:1051080047F002C048F003C049F02EDD00C000F1AE
:1051180077EC20F046C004F047C005F048C006F020
:1051280049C007F0000E006EC00E016E7D0E026EC3
:10513800880E036E54EC0BF0010ED8B0000E006E12
:10514800005235E0B80E0D6F000E0E6F030E0F6F94
:10515800560E106F000E116F000E046E800E056E55
:105168007F0E066E880E076E46C000F047C001F03D
:1051780048C002F049C003F0C7EC0BF0000E046E03
:10518800000E056E480E066E850E076E62EC01F085
:1051980000C012F101C013F102C014F103C015F1EF
:1051A80044C016F145C017F152EC20F034D0B80EC7
:1051B8000D6F000E0E6FF00E0F6F550E106F000E74
:1051C800116F000E046E800E056E7F0E066E880E3F
:1051D800076E46C000F047C001F048C002F049C061
:1051E80003F0C7EC0BF0000E046E000E056E480EBF
:1051F800066E850E076E62EC01F000C012F101C068
:1052080013F102C014F103C015F144C016F145C0F2
:1052180017F152EC20F0020E0D6F010E0E6FB80E52
:105228000F6F000E106F88EC24F0000E046E800ED5
:10523800056E7F0E066E880E076E46C000F047C0EA
:1052480001F048C002F049C003F0C7EC0BF0000EB3
:10525800046E000E056E480E066E850E076E62EC33
:1052680001F000C08FF001C090F002C091F003C0BF
:1052780092F000C00DF101C00EF102C00FF103C0A1
:1052880010F1930E0101116F000E126F070E136FCC
:105298008CEC20F040C00DF141C00EF142C00FF17E
:1052A80043C010F1800E116F000E126F070E136FBE
:1052B8008CEC20F0670E0D6F000E0E6F480E0F6F0E
:1052C800560E106F000E116F930E126F000E136FB3
:1052D800800E146F000E156F44C016F145C017F10B
:1052E80052EC20F000017FA19DD0A20E01010D6FAC
:1052F800000E0E6F1D0E0F6F000E106FDDEC23F009
:10530800000E011802E1000E001813E1670E0101FA
:105318000D6F000E0E6F630E0F6F560E106F000E9E
:10532800116FA20E126F000E136F52EC20F00001E5
:105338007F93A20E01010D6F000E0E6F270E0F6FE7
:10534800000E106FDDEC23F0000E011802E1000ED4
:10535800001811E1670E01010D6F000E0E6F600E4F
:105368000F6F560E106F000E116FA20E126F000E07
:10537800136F52EC20F00101A20E0D6F000E0E6F9C
:10538800300E0F6F030E106F000E116F3BDC4A6A70
:105398004B6A800E4B18006E800E005C02E1070E0F
:1053A8004A5C11E2B00E4A24E16E000E4B20E26E18
:1053B800A20E4A24E96E000E4B20EA6EEECFE6FFFD
:1053C8004A4A4B2AE6D70101B00E0D6F000E0E6F48
:1053D800E7EC1FF000C01BF001C01CF0000E011824
:1053E80002E1000E001803E00001AE4BAF2BD9C05C
:1053F8000DF1000E01010E6F560E0F6F560E106F55
:10540800000E116F1BC012F11CC013F152EC20F0FA
:10541800AEC00DF1AFC00EF1D9C00FF112EC23F000
:1054280000017F91670E01010D6F000E0E6F03ECF6
:1054380024F000017FA721D07F97E80E4A6E030E63
:105448004B6E800E4B18006E800E130A005C02E152
:10545800880E4A5C10E24AC00DF14BC00EF1E80E0E
:1054680001010F6F030E106F24EC26F0E80E4A2698
:10547800030E4B22E6D7444A452A000E0001F319D1
:1054880002E1020EF21918E1F26BF36B020E010150
:105498000D6F010E0E6FB80E0F6F000E106F88ECB7
:1054A80024F0010E01010D6F010E0E6FC80E0F6F73
:0C54B800000E106F88EC24F024D5FFD704
:1056660010EE1BF04C0E006E010E016EC40EF66EAF
:0E567600540EF76E000EF86ECCEC24F012000D
:0254C4000000E6
:0A54C60023313B303030303B300022
:0A54D00023303B303030303B310018
:0F54DA002020454D455247454E4359204F4E0027
:0454E90000000000BF
:0254ED000000BD
:0454EF0000000000B9
:0254F3000000B7
:0254F5000000B5
:0754F700286E756C6C2900A2
:0354FE004C460019
:0455010000000000A6
:02550500300074
:04550700494E4600C3
:04550B004E614E009F
:01550F000F8C
:105510000000007FCDCC4C7B0AD723786F12037537
:1055200017B75171ACC5276EBD37066B95BF56676F
:1055300077CC2B645F700961FFE65B5D08E53C3C5E
:045540006042221B88
:105544000000007F000020820000488500007A8867
:1055540000401C8C0050438F00247492809618964F
:1055640020BC3E99286B6E9CF90215A0EC782DC1E5
:04557400CAF249E24C
:1055780001000000080000004000000000020000D8
:10558800001000000080000000000400000020005F
:1055980000000001000000080000004000000000BA
:1055A800010000000A00000064000000E803000099
:1055B80010270000A086010040420F008096980046
:0855C80000E1F50500CA9A3B61
:1055D00001000000100000000001000000100000A9
:1055E0000000010000001000000000010000001099
:1055F00046696C6C3A252E316625257C253034644D
:0356000020200067
:1056030046696C6C3A252E30662025257C2530347E
:0356130064200010
:105616003031323334353637383961626364656622
:015626000083
:1056270030313233343536373839414243444546D1
:015637000072
:10563800563A252E33666D2F737C436F756E740052
:0E5648002325733B25733B253034644C46000C
:0A5656002825733B25733B257300E4
:03566000257300AF
:03566300257300AC
:020000040030CA
:0D000100231F3CFFBF81FF0FC00FE00F4029
:00000001FF
